:400000000080002011000000210A0000210A000008B5044B1A6803F53F5302331A6000F007FD00BFFA46004010B5054C237833B9044B13B10448AFF300800123237010BD1D
:400040004881FF1F00000000700D0000084B10B51BB108490848AFF300800848036803B910BD074B002BFBD0BDE81040184700BF000000004C81FF1F700D0000C880FF1F08
:400080000000000008B5064800F092FD054B1B68072B03D8034A13680133136008BD00BF740D0000CC80FF1F08B5064800F080FD054B1B68012B03D9034A1368013B13602E
:4000C00008BD00BF880D0000CC80FF1F08B5044800F06EFD034B00221A705A7008BD00BF9C0D00006481FF1F08B5044800F060FD034B01221A7000225A7008BDB80D00005E
:400100006481FF1F08B53038472860D8DFE800F0302A2D5F5F343D464E575F5F5F5F5F5F5F5F5F5F5F5F5F5F5F5F5F5F5F5F5F5F5F5F5F5F5F5F5F5F5F5F5F5F5F5F5F5F7E
:400140005F5F5F5F5F5F5F5F5F5F5F5F5F5F5F5F5F245F5F5F5F5F27FFF794FF08BDFFF7A3FF08BDFFF7B2FF08BDFFF7BDFF08BD0522174B9A7008BD164800F019FD144B61
:4001800000225A7003229A7008BD134800F010FD0F4B00225A7004229A7008BD0E4800F007FD0B4B00225A709A7008BD0B4800F0FFFC074B00225A7001229A7008BD0848B3
:4001C00000F0F6FC024B00225A7002229A7008BD6481FF1FD40D0000F00D0000FC0D0000080E000038B500F0C1FC044609E000F0B7FC054600F0C6FC2846FFF783FF013C61
:40020000E4B2002CF3D138BD08B5AC4B9B7813F0FF0F7AD1A94B5B78DBB2042B00F2A582DFE803F0031E39546F00A44B1B7813F0FF0F05D1A14A53780133DBB2537002E028
:4002400003229E4B5A70012000F0C4FC002000F0CDFC002000F0D6FC002000F0DFFC08BD964B1B7813F0FF0F05D1944A53780133DBB2537002E00022904B5A70002000F029
:40028000A9FC002000F0B2FC012000F0BBFC002000F0C4FC08BD894B1B7813F0FF0F05D1864A53780133DBB2537002E00122834B5A70002000F08EFC012000F097FC002016
:4002C00000F0A0FC002000F0A9FC08BD7B4B1B7813F0FF0F05D1794A53780133DBB2537002E00222754B5A70002000F073FC002000F07CFC002000F085FC012000F08EFCE3
:4003000008BD00226D4B5A7008BD6C4B9B78DBB2012B7AD1694B5B78DBB2042B00F22582DFE803F0031E39546F00644B1B7813F0FF0F05D1614A53780133DBB2537002E009
:4003400003225E4B5A70012000F044FC002000F04DFC012000F056FC002000F05FFC08BD564B1B7813F0FF0F05D1544A53780133DBB2537002E00022504B5A70002000F027
:4003800029FC012000F032FC012000F03BFC002000F044FC08BD494B1B7813F0FF0F05D1464A53780133DBB2537002E00122434B5A70002000F00EFC012000F017FC0020D4
:4003C00000F020FC012000F029FC08BD3B4B1B7813F0FF0F05D1394A53780133DBB2537002E00222354B5A70012000F0F3FB002000F0FCFB002000F005FC012000F00EFCA2
:4004000008BD00222D4B5A7008BD2C4B9B78DBB2022B40F0F080294B5B78DBB2082B00F2A481DFE813F0090024003F005D0078009300AE00C900E400204B1B7813F0FF0FC4
:4004400005D11E4A53780133DBB2537002E007221A4B5A70012000F0BDFB002000F0C6FB012000F0CFFB002000F0D8FB08BD134B1B7813F0FF0F05D1104A53780133DBB2DA
:40048000537002E000220D4B5A70002000F0A2FB002000F0ABFB012000F0B4FB002000F0BDFB08BD054B1B7813F0FF0F08D1034A53780133DBB2537005E000BF6481FF1F93
:4004C0000122AA4B5A70002000F084FB012000F08DFB012000F096FB002000F09FFB08BDA24B1B7813F0FF0F05D1A04A53780133DBB2537002E002229C4B5A70002000F07A
:4005000069FB012000F072FB002000F07BFB002000F084FB08BD954B1B7813F0FF0F05D1924A53780133DBB2537002E003228F4B5A70002000F04EFB012000F057FB0020F3
:4005400000F060FB002000F069FB08BD874B1B7813F0FF0F05D1854A53780133DBB2537002E00422814B5A70002000F033FB002000F03CFB002000F045FB012000F04EFBC0
:4005800008BD7A4B1B7813F0FF0F05D1774A53780133DBB2537002E00522744B5A70012000F018FB002000F021FB002000F02AFB012000F033FB08BD6C4B1B7813F0FF0FB1
:4005C00005D16A4A53780133DBB2537002E00622664B5A70012000F0FDFA002000F006FB002000F00FFB012000F018FB08BD00225E4B5A7008BD5D4B9B78DBB2032B58D188
:400600005A4B5B78DBB2042B00F2AF80DFE803F0031527394B00554A53780133DBB25370012000F0D7FA002000F0E0FA012000F0E9FA002000F0F2FA08BD4C4A53780133E4
:40064000DBB25370002000F0C5FA012000F0CEFA012000F0D7FA002000F0E0FA08BD434A53780133DBB25370002000F0B3FA012000F0BCFA002000F0C5FA012000F0CEFAE9
:4006800008BD3A4A53780133DBB25370012000F0A1FA002000F0AAFA002000F0B3FA012000F0BCFA08BD314B00225A7005229A7008BD2E4B9B78DBB2042B56D12B4B5B78E3
:4006C000DBB2042B51D8DFE803F0031527394B00264A53780133DBB25370012000F07AFA002000F083FA002000F08CFA012000F095FA08BD1D4A53780133DBB253700020F6
:4007000000F068FA012000F071FA002000F07AFA012000F083FA08BD144A53780133DBB25370002000F056FA012000F05FFA012000F068FA002000F071FA08BD0B4A5378CA
:400740000133DBB25370012000F044FA002000F04DFA012000F056FA002000F05FFA08BD024B00225A7005229A7008BD6481FF1F08B562B6164800F09BFA00F0E3F91548AD
:4007800000F016FA144800F013FA144800F010FA134800F00DFA134800F00AFA124800F007FA124800F004FA114800F001FA114800F0FEF9104800F0FBF9104800F0F8F95D
:4007C0000F4B186800F044FAFFF71EFDF8E700BFE50100001C0E0000400E00004C0E0000600E0000780E00008C0E0000A00E0000C00E0000E80E0000F80E0000080F00006D
:40080000CC80FF1FFEE700BFF0B40022174611E050F82760F3B226F0FF0608E001EB420511F812406D78A5550132013BDBB2002BF4D10137112FEBD9F0BC7047064B1B7843
:40084000DBB203F00701054A11701B09013213704422034B1A707047CF0100496E5800407658004008B50A46002100F078FA08BD38B54FF49C72244B1A80182202331A708F
:40088000022203F27E231A7008224FF040231A70032103F5007319701C4B1B78DBB21C490B701C4B1A8041F25122023B1A80002419250CE0184B1B7803F0010343EA4404F1
:4008C00004F003044FF4F07000F002FA013D0DB1032CEFD115B90320FFF794FF0F4B4FF480721A8007221A7000220D490A704820023108701A700222033B1A70094A1378D4
:4009000043F00103137038BD8040004008010049A146004022420040254200400440004006400040A243004008B500F00DFA08BD38B572B62B4A137843F0040313700024A6
:400940000CE0294D630019194A0011462A44084691882858FFF786FF0134E4B2072CF0D922494FF09040FFF74FFF214A137843F0020313701032137843F0020313701D4CE8
:40098000237843F040032370A2F58632513A137843F0100313700A2217491848FFF7C4FF082217491748FFF7BFFF082216491748FFF7BAFF164A137843F008031370154D7E
:4009C00061232B70FFF754FF81232B700122124B1A70FFF733FF0E2221461048FFF7A4FF38BD00BFE8460040200F00004800004803500140A0430040A8030048C0510040BA
:400A0000B403004812510040BC03004822510040224300400048004004000840B043004008B500F065F903680C2B00D1FEE7FEE708B5104E104D16E029686B68AC6800225E
:400A400004E051F8040B43F8040B0432A242F8D1E868002203E0002143F8041B04328242F9D11035013E002EE6D100F047F9FFF77FFEFEE701000000780F000008B5104AE9
:400A8000104B1A60104A136843F40073136000230AE0032B03D80D4A52F8231000E00C490C4A42F8231001332F2BF2D90A4B1A780A4B1A70074A0A4B1A60FFF739FF08BD5B
:400AC0000004FA050CED00E014ED00E000000000210A00000080FF1FBC760040C080FF1F08ED00E07222084B1A702022033B1A700622A3F25F131A70472210331A7000223F
:400B00004F331A70704700BF8B65004010B500F0E7F804460A4A137843F020031370033A137843F010031370A2F58072137843F01003137000F07EF8204600F0D5F810BDA9
:400B40009B65004008B5054B1B7823B9FFF7CAFF0122024B1A70FFF7D9FF08BD6781FF1F014B1878704700BF48650040044B1B7813F0200F01D0012070470020704700BFD5
:400B800068650040024B1B780BB1024B187070476781FF1F48640040034B1B7813F0040FFAD1024B18707047686400404864004038B5074B1B782BB938BDFFF7EDFF013406
:400BC000A4B201E005460024285D0028F5D138BD6781FF1F044A137803F0F703C00000F0080018431070704720510040044A137803F0EF03000100F01000184310707047CF
:400C000020510040044A137803F0DF03400100F0200018431070704720510040044A137803F0BF03800100F0400018431070704720510040054A137843F001031370103269
:400C4000137843F001031370704700BFA243004010B5044605E0084B186800F039F8A4F50044B4F5004FF6D8034B586800FB04F000F02EF810BD00BFD080FF1F014B1B682D
:400C80001864704708ED00E04001C0B2014B1870704700BF00E400E00122014B1A60704700E100E00122014B1A60704780E100E010B50446FFF7F6FF2046FFF7DFFF0720CE
:400CC000FFF7E2FFFFF7E8FF10BD00BF000000000230800803D000BF01380046FCD17047EFF3108072B6704780F31088704700BF014B1868704700BF4081FF1F0E4B70B5F4
:400D00001E460E4C0025E41AA410A54204D056F8253098470135F8E700F01CF9084B094C1E46E41AA4100025A54204D056F8253098470135F8E770BD600F0000600F000087
:400D4000600F0000680F000010B5431E0A44914204D011F8014B03F8014FF8E710BD03460244934202D003F8011BFAE7704700000000000044656372656173696E672073B9
:400D8000706565640D0A0000496E6372656173696E672073706565640D0A000053657420646972656374696F6E3A20666F7277617264730D0A00000053657420646972655D
:400DC0006374696F6E3A206261636B77617264730D0A000053696E676C6520726F746174696F6E20636C6F636B776973650D0A0057617665206D6F64650D0A0046756C6CC4
:400E000020737465700D0A0048616C662D647269766520737465700D0A00000053746570706572206D6F746F72206170706C69636174696F6E20737461727465640D0A00F4
:400E4000303A2053746F700D0A000000313A20447269766520666F7277617264730D0A00323A204472697665206261636B77617264730D0A00000000713A204465637265EA
:400E80006173652073706565640D0A00773A20496E6372656173652073706565640D0A00353A2053696E676C6520726F746174696F6E20636C6F636B776973650D0A0000F2
:400EC000363A2053696E676C6520726F746174696F6E20636F756E74657220636C6F636B776973650D0A0000373A20576176652044726976650D0A00383A2046756C6C20BB
:400F000044726976650D0A00393A2048616C6620537465702044726976650D0A00000000005100401000305100404000F05100401000000001400010001401400008004084
:400F40000140000A004C0140000200500140200043000000F8B500BFF8BC08BC9E4670474D0000007D0A0000F8B500BFF8BC08BC9E46704729000000880F0000C880FF1FAB
:400F8000800000002800000000000000050000000000E02EC05D00001800000000366E0100000000000000000000000000000000000000000000000000000000000000009C
:400FC000500F000000000000000000000000000000000000000000000000000000000000000000000000000000000000000000000000000000000000000000000000000092
:40100000E080FF1F00000000000000000000000000000000000000000000000000000000000000000000000000000000000000000000000000000000000000000000000032
:401040000000000000000000000000000000000000000000000000000000000000000000000000000000000000000000000000000000000000000000000000000000000070
:401080000000000000000000000000000000000000000000000000000000000000000000000000000000000000000000000000000000000000000000000000000000000030
:4010C00000000000000000000000000000000000000000000000000000000000000000000000000000000000000000000000000000000000000000000000000000000000F0
:4011000000000000000000000000000000000000000000000000000000000000000000000000000000000000000000000000000000000000000000000000000000000000AF
:020000040003F7
:0200000480007A
:400000000252004001640040026500405C08014037090140011701404418014032190140401A0140481B01400240014001410140014201400143014003480140074D0140C9
:40004000085001400151014061806440880F88388B72001302040615080A091C0A140B020D1410131110120C130C1509162017101A081E201F03210C2311240326142D1047
:400080003010311F3420360F3A803E114016410446CB47E0482C49FF4AFF4BFF4EF04F44500C5401580459045A045B045F0166C06A406B028203858087138806892C8A0165
:4000C0008B438E029B0C9E059F08A171A30EA606AA01AD71AF06B007B130B30FB5C0B922BA02BB08BF01C004C540C9FFCA07CBFFCC40CD20CEF0CF05D008D804D904DA04B5
:40010000DF01E040E1A8E240E3200090010203020418050209800C010D100E200F02120813081420162019021DC01E401F20205021102210230826022780284129422D0260
:400140002F02308032103401378838183C103F8040404440458048C04C0450045208562157405C225E48C07BC2F1C426CA99CCDCCE36D091D220D6F0E608011C02010301FA
:400180000507060107180B040D10120213031401151F19181F202001211C2302250826022B402C042D042F40300131603202331F340438023B083E143F014046410342024E
:4001C0004401450E47C0482149FF4AFF4BFF4C624DA04EF04F41500C54185604580459045A045B045F016640670269106A306B106D106E106F1288018C019801B401D80462
:40020000DF0101400308040107100A040D080E801482150416011A081E881F0427502CA22D203502368037283C893E104480451847484D044E0457015D016602670A8602B9
:400240008C808F1093029A019C02A202A614A701B721C033C232C4B0CAF0CCF0CEF0D0F0D220D680D8B001020301080409070A02150718061D011F06280629042B012C02A7
:400280002E05320134063707580459045F01801F81088220840C85048804890C8C018D109101943F9532970C983399209A0C9D309E23A003A332A402A53EA81CA90EAA2349
:4002C000AB30AC08AD0CAF32B010B330B40FB50EB62CB701BAA8BE01BF40D602D710D804D904DB04DF0101200401068107280A040D080E080F02100A1424160217121920C9
:400300001A101C091D081E48228023022550261829202C142D022E803008328034203520368638203A013E2A3F80441045085E406C186D406E046F087460762A77288543C6
:40034000860C870188848C028E018F4092089401954196149B109C809D229F20A202A466A518A690A708C0F2C2E2C4F3CAF4CCFACEF5D610E0023380CC10A780A780A78007
:400380008780A780E6101080710285028C80C408DC01E602000101010C010D01100111011C011D0100030000800040808000800000000000000B0B0000000000007878002D
:4003C00000000000000000000000000000000000000000000000000000000000000000000000000000000000000000000000000000000000000000000000000000000000FD
:4004000000000000000000000000000000000000000000000000000000000000000000000000000000000000000000000000000000000000000000000000000000000000BC
:40044000000000000000000000000000000000000000000000000000000000000000000000000000000000000000000000000000000000000000000000000000000000007C
:40048000000000000000000000000000000000000000000000000000000000000000000000000000000000000000000000000000000000000000000000000000000000003C
:0200000490006A
:0400000000004005B7
:0200000490105A
:04000000BC90ACAF55
:0200000490303A
:0200000094A5C5
:0200000490402A
:4000000000000000000000000000000000000000000000000000000000000000000000000000000000000000000000000000000000000000000000000000000000000000C0
:400040000000000000000000000000000000000000000000000000000000000000000000000000000000000000000000000000000000000000000000000000000000000080
:400080000000000000000000000000000000000000000000000000000000000000000000000000000000000000000000000000000000000000000000000000000000000040
:4000C0000000000000000000000000000000000000000000000000000000000000000000000000000000000000000000000000000000000000000000000000000000000000
:0200000490501A
:0C00000000012E16106900012E1CA50E38
:00000001FF