:400000000080002011000000990600009906000008B5044B1A6803F53F5302331A6000F05BFB00BFFA46004010B5054C237833B9044B13B10448AFF300800123237010BDE3
:400040008881FF1F0000000014350000084B10B51BB108490848AFF300800848036803B910BD074B002BFBD0BDE81040184700BF000000008C81FF1F14350000C880FF1FF0
:400080000000000008B500F0FDFD044B187001225A7000F0FDFD00F009FE08BDA481FF1F08B50D4B9B7813F0FF0F12D100F06CFC094B9870094800F0D1FB094B1B7813F025
:4000C000010F03D00122044BDA7002E00222024BDA7000F061FC08BDA481FF1F183500008045004008B53038472842D8DFE800F0302A2D41414141414141414141414141E4
:40010000414141414141414141414141414141414141414141414141414141414141414141414141414141413341414141414141412441413941362700F09AF808BD00F0A8
:40014000BFF808BD00F0F2F808BD00F005F908BD00F0D4F808BD00F033F908BD00F012F908BD002000F0F0FF18B100F0FFFF01F009F808BD38B500F04FFB044609E000F0D8
:4001800045FB054600F054FB2846FFF7ABFF013CE4B2002CF3D138BD08B562B6294800F089FB294800F0EEFE284800F0EBFD00F01FFB00F0BDFD00F0B1FF00F0BDFF00F070
:4001C00051FC00F0BDFC00F049FE00F0B3FE00F023FD1F4800F042FB1E4800F03FFB1E4800F03CFB1D4800F039FB1D4800F036FB1C4800F033FB3C2000F0C4FC4FF4FA7026
:4002000000F076FB184800F029FB184BDB78012B05D100F0B7F80022144B9A7006E0022B04D100F0CDF80022104B9A7000F0B4FB00F0B6FE00220D4BDA704FF4FA6000F04F
:4002400057FBDBE775010000A100000085000000303500005435000060350000743500008C350000A0350000B4350000A481FF1F10B5114800F0F2FA104B1B78DBB20A2B36
:4002800003D800220D4B1A7004E00C4A13780A3BDBB21370094B5B78DBB2012B04D1074B187800F06FFC10BD044C207800F0FCFB207800F0F5FD10BDC4350000CC80FF1F0D
:4002C00008B50C4800F0CAFA0B4A13780A33DBB213701378DBB2642B02D96422064B1A70054B5B78DBB2012B03D1034B187800F049FC08BDD8350000CC80FF1F10B5094814
:4003000000F0ACFA084C00232370207800F060FB207800F0C9FB207800F056FD207800F0BFFD10BDEC350000CC80FF1F10B5084800F094FA074C01236370FFF7DFFF322371
:400340002370207800F044FB207800F03DFD10BDF4350000CC80FF1F10B5084800F07EFA074C00236370FFF7C9FF32232370207800F09AFB207800F093FD10BD103600004D
:40038000CC80FF1F10B50C4800F068FAFFF7E4FF0A4C606800F0ACFAFFF7C8FF207800F013FD002000F014FBA06800F0A1FA207800F00EFB10BD00BF2C360000CC80FF1FEB
:4003C00010B50C4800F04AFAFFF7C6FF0A4C606800F08EFAFFF7AAFF207800F0F9FA002000F0F2FCA06800F083FA207800F0ECFC10BD00BF3C360000CC80FF1FFEE700BF56
:40040000F0B40022174611E050F82760F3B226F0FF0608E001EB420511F812406D78A5550132013BDBB2002BF4D10137222FEBD9F0BC70470C4B1B78DBB203F007010B4A61
:4004400011701B09013213700423A2F25272137002F60B2213702022054B1A704422A3F2B5231A70704700BFCF0100496E5800402B5B004008B50A46002101F02EFB08BD96
:4004800038B50C22334B1A801823334A137019250232158002321370EF21023211800232137040F2DF122D490A8002310B7002310A8002310B7002310A8002310B700231AA
:4004C0000A8002310B7002310A80254A13700222244B1A7008224FF040231A70032103F500731970204B1B78DBB220490B70204B1A8041F25122023B1A8000240CE01D4B21
:400500001B7803F0010343EA440404F003044FF4F07000F049FE013D0DB1032CEFD115B90320FFF76BFF144B4FF480721A8007221A70002211490A704820023108701A7037
:400540000222033B1A7003F2A1331A78FF221A7038BD00BF80400040824000408C4000409E4000400043004008010049A14600402242004025420040044000400640004058
:4005800008B501F09FFA08BD38B572B62F4A137843F00403137000240CE02D4D630019194A0011462A44084691882858FFF762FF0134E4B2062CF0D926494FF09040FFF7B3
:4005C0001FFF254A254B1A60254A137843F0020313701032137843F002031370214C237843F040032370A2F58632513A137843F01003137008221C491C48FFF7C1FF0A2233
:400600001B491C48FFF7BCFF08221B491B48FFF7B7FF08221A491B48FFF7B2FF1A4A137843F008031370194D61232B70FFF728FF81232B700122164B1A70FFF7FBFE0E224F
:4006400021461448FFF79CFF38BD00BFE84600404C3600008C00004804240484D818014003500140A0430040C008004802510040C8080048C0510040D40800481251004043
:40068000DC08004822510040224300400048004004000840B043004008B501F0E7F903680C2B00D1FEE7FEE708B5094B1A681044084BC31AB3F5007F02DC054B186005E01B
:4006C00001F0D4F90C2303604FF0FF32104608BDD880FF1FD081FF1F08B5104E104D16E029686B68AC68002204E051F8040B43F8040B0432A242F8D1E868002203E0002153
:4007000043F8041B04328242F9D11035013E002EE6D101F0B1F9FFF73FFDFEE701000000C437000008B5104A104B1A60104A136843F40073136000230AE0032B03D80D4A39
:4007400052F8231000E00C490C4A42F8231001332F2BF2D90A4B1A780A4B1A70074A0A4B1A60FFF711FF08BD0004FA050CED00E014ED00E000000000990600000080FF1F00
:40078000BC760040C080FF1F08ED00E07222084B1A702022A3F201131A7006225A3B1A70472210331A70002203F5A6731A7070478A65004010B500F0FFFC04460B4A1378B4
:4007C00043F020031370A2F20112137843F01003137002F58172137843F01003137000F077F8204600F0ECFC10BD00BF9A65004008B5054B1B7823B9FFF7C8FF0122024BD6
:400800001A70FFF7D7FF08BDAA81FF1F014B1878704700BF49650040044B1B7813F0200F01D0012070470020704700BF69640040024B1B780BB1024B18707047AA81FF1F43
:400840004B650040034B1B7813F0040FFAD1024B187070476B6500404B65004038B5074B1B782BB938BDFFF7EDFF0134A4B201E005460024285D0028F5D138BDAA81FF1F21
:40088000014B1B68D864704708ED00E04001C0B2014B1870704700BF03E400E00822014B1A60704700E100E00822014B1A60704780E100E010B50446FFF7F6FF2046FFF737
:4008C000DFFF0720FFF7E2FFFFF7E8FF10BD00BF054A137843F0020313701032137843F002031370704700BFA243004001BE704710B5044605E0084B186800F055FCA4F5E4
:400900000044B4F5004FF6D8034B586800FB04F000F04AFC10BD00BFDC80FF1F08B5034B1B7A00FB03F000F03FFC08BDDC80FF1F70B504460E46074B1D681F2802D90020A0
:40094000FFF7D4FF04F01F04103455F8240045F8246070BD08ED00E038B504460D46072902D90020FFF7C2FF1F2C02D90020FFF7BDFF04F01F0000F1604000F564406D0110
:40098000EDB2057038BD00BF024B187800F00300704700BF01510040024B187800F00300704700BF80450040024A137843F08003137070477B640040014B1870704700BF1C
:4009C0000B640040014B1870704700BF4B640040014B1870704700BF2B640040014B1870704700BF8B640040014B1878704700BF6B640040014B1878704700BF5B640040CB
:400A000008B501E0FFF7F6FFFFF7EEFF10F0100FF8D108BD10B5114A137803F0C00343F0090313700E4C237843F0010323706420FFF7C2FF6420FFF7C5FF3220FFF7C8FF33
:400A40000020FFF7CBFF00F0B7FB237843F01003237000F0B5FBFFF7D3FF10BD7B6400409B64004008B5054B1B7823B9FFF7D2FF0122024B1A70FFF797FF08BDAC81FF1F14
:400A8000024A137843F08003137070477F640040014B1870704700BF08640040014B1870704700BF48640040014B1870704700BF28640040014B1870704700BF8F6400408D
:400AC000014B1878704700BF6F640040014B1878704700BF5864004008B501E0FFF7F6FFFFF7EEFF10F0100FF8D108BD08B5124A137803F0C00343F0090313701932137838
:400B000043F0010313706420FFF7C2FF6420FFF7C5FF3220FFF7C8FF0020FFF7CBFF00F04BFB064A137843F01003137000F048FBFFF7D2FF08BD00BF7F6400409F640040D5
:400B400008B5054B1B7823B9FFF7D0FF0122024B1A70FFF795FF08BDAD81FF1F024A137843F080031370704772640040014B1870704700BF02640040014B1870704700BF88
:400B800042640040014B1870704700BF22640040014B1870704700BF82640040014B1878704700BF62640040014B1878704700BF5264004008B501E0FFF7F6FFFFF7EEFFC3
:400BC00010F0100FF8D108BD10B5114A137803F0C00343F0090313700E4C237843F0010323706420FFF7C2FF6420FFF7C5FF3220FFF7C8FF0020FFF7CBFF00F0DDFA23789C
:400C000043F01003237000F0DBFAFFF7D3FF10BD726400409264004008B5054B1B7823B9FFF7D2FF0122024B1A70FFF797FF08BDAE81FF1F08B500F0BFFA0A4A137843F0E2
:400C400020031370FF3A137843F010031370023A137843F01003137000F0B2FA0422024B1A6008BD9965004000E100E0014B1878704700BF6A640040014B1878704700BFB2
:400C800068640040014B1878704700BF5964004001E0044B1B78044B1B7813F0080FF8D1704700BF596400406864004008B501E00A4B1B780A4B1B7813F0080FF8D100F091
:400CC0007BFA084B1A7842F003021A701A7802F0FC021A7000F074FA08BD00BF59640040686400409964004010B507240C4B1C7004220C4B1A600C490220FFF719FE2146F0
:400D00000220FFF729FEFFF7D1FFFFF7AFFFFFF7B3FF0022054B1A700822023B1A7010BD8965004080E100E04D0D00008A64004008B5054B1B7823B9FFF7D6FF0122024BFA
:400D40001A70FFF777FF08BDAF81FF1F704700BF014B1B681864704708ED00E04001C0B2014B1870704700BF00E400E00122014B1A60704700E100E00122014B1A6070475B
:400D800080E100E010B50446FFF7F6FF2046FFF7DFFF0720FFF7E2FFFFF7E8FF10BD00BF024A137843F080031370704773640040014B1870704700BF03640040014B1870B4
:400DC000704700BF43640040014B1870704700BF23640040014B1870704700BF83640040014B1878704700BF63640040014B1878704700BF5364004008B501E0FFF7F6FFE9
:400E0000FFF7EEFF10F0100FF8D108BD10B5114A137803F0C00343F0090313700E4C237843F0010323706420FFF7C2FF6420FFF7C5FF3220FFF7C8FF0020FFF7CBFF00F0E8
:400E4000BBF9237843F01003237000F0B9F9FFF7D3FF10BD736400409364004008B5054B1B7823B9FFF7D2FF0122024B1A70FFF797FF08BDB081FF1F024A137843F080035B
:400E8000137070477E640040014B1870704700BF0E640040014B1870704700BF4E640040014B1870704700BF2E640040014B1870704700BF8E640040014B1878704700BFB4
:400EC0006E640040014B1878704700BF5E64004008B501E0FFF7F6FFFFF7EEFF10F0100FF8D108BD10B5114A137803F0C00343F0090313700E4C237843F00103237064200D
:400F0000FFF7C2FF6420FFF7C5FF3220FFF7C8FF0020FFF7CBFF00F04FF9237843F01003237000F04DF9FFF7D3FF10BD7E6400409E64004008B5054B1B7823B9FFF7D2FFAF
:400F40000122024B1A70FFF797FF08BDB181FF1F014B1B681865704708ED00E04001C0B2014B1870704700BF04E400E01022014B1A60704700E100E01022014B1A6070471A
:400F800080E100E010B50446FFF7F6FF2046FFF7DFFF0720FFF7E2FFFFF7E8FF10BD00BF1022014B1A60704780E200E008B50A280FD00C2802D0082806D102E04FF4805292
:400FC00009E04FF4807206E00020FFF78FFC002201E04FF480620021094B198042F2107303FB02F303F6C413064A82FB0302DB17C3EBE223044A1360044B198008BD00BFF8
:40100000BC81FF1FAD8BDB68C081FF1FBE81FF1F38B500F0D1F804461F4A137843F0020313701032137843F002031370193A137843F0010313701032137843F001031370D8
:4010400002F5AA521932137803F0FE0343F0020313700422114B1A70013B1A7842F040021A701A7802F0FC021A70C822053B1A700225A3F59753123B1D70094A137843F0CC
:40108000080313700A20FFF749FC064B1D60204600F096F838BD00BFAB4300400E5900402F5B004080E200E010B504460A280DD00C2802D0082804D101E0C42207E04422B9
:4010C00005E00020FFF712FCC42200E08422034B1A702046FFF76AFF10BD00BF0A59004008B5102000F056F807210120FFF734FC07490120FFF71CFC064A137843F006037F
:4011000013700C20FFF7D0FF0022034B1A8008BD9111000009590040C481FF1F08B5054B1B7823B9FFF7DCFF0122024B1A70FFF76FFF08BDB281FF1F024A137843F00103F6
:40114000137070470859004010B5074B1B7813F0010401D10028F8D024B10120FFF7DEFB014B1B78204610BD09590040034B188880B2034B1B88C01A00B27047A25B004016
:40118000BE81FF1F014B1880704700BFC481FF1F704700BF034B1A7800F0F80010431870704700BF824000400230800803D000BF01380046FCD17047EFF3108072B67047E4
:4011C00080F31088704700BF81F0004102E000BF83F0004330B54FEA41044FEA430594EA050F08BF90EA020F1FBF54EA000C55EA020C7FEA645C7FEA655C00F0E2804FEA4A
:401200005454D4EB5555B8BF6D420CDD2C4480EA020281EA030382EA000083EA010180EA020281EA0303362D88BF30BD11F0004F4FEA01314FF4801C4CEA113102D0404288
:4012400061EB410113F0004F4FEA03334CEA133302D0524263EB430394EA050F00F0A780A4F10104D5F1200E0DDB02FA0EFC22FA05F2801841F1000103FA0EF2801843FAD4
:4012800005F359410EE0A5F120050EF1200E012A03FA0EFC28BF4CF0020C43FA05F3C01851EBE37101F0004507D54FF0000EDCF1000C7EEB00006EEB0101B1F5801F1BD397
:4012C000B1F5001F0CD349085FEA30004FEA3C0C04F101044FEA445212F5800F80F09A80BCF1004F08BF5FEA500C50F1000041EB045141EA050130BD5FEA4C0C404141EB80
:40130000010111F4801FA4F10104E9D191F0000F04BF01460020B1FA81F308BF2033A3F10B03B3F120020CDA0C3208DD02F1140CC2F10C0201FA0CF021FA02F10CE002F197
:401340001402D8BFC2F1200C01FA02F120FA0CFCDCBF41EA0C019040E41AA2BF01EB0451294330BD6FEA04041F3C1CDA0C340EDC04F11404C4F1200220FA04F001FA02F377
:4013800040EA030021FA04F345EA030130BDC4F10C04C4F1200220FA02F001FA04F340EA0300294630BD21FA04F0294630BD94F0000F83F4801306BF81F480110134013D65
:4013C0004EE77FEA645C18BF7FEA655C29D094EA050F08BF90EA020F05D054EA000C04BF1946104630BD91EA030F1EBF0021002030BD5FEA545C05D14000494128BF41F0E4
:40140000004130BD14F580043CBF01F5801130BD01F0004545F0FE4141F470014FF0000030BD7FEA645C1ABF194610467FEA655C1CBF0B46024650EA013406BF52EA033509
:4014400091EA030F41F4002130BD00BF90F0000F04BF0021704730B54FF4806404F132044FF000054FF0000150E700BF90F0000F04BF0021704730B54FF4806404F13204A1
:4014800010F0004548BF40424FF000013EE700BF42004FEAE2014FEA31014FEA02701FBF12F07F4393F07F4F81F06051704792F0000F14BF93F07F4F704730B54FF4607492
:4014C00001F0004521F0004120E700BF50EA010208BF704730B54FF000050AE050EA010208BF704730B511F0004502D5404261EB41014FF4806404F132045FEA915C3FF448
:40150000DCAE4FF003025FEADC0C18BF03325FEADC0C18BF033202EBDC02C2F1200300FA03FC20FA02F001FA03FE40EA0E0021FA02F11444C1E600BF70B54FF0FF0C4CF40E
:40154000E06C1CEA11541DBF1CEA135594EA0C0F95EA0C0F00F0DEF82C4481EA030621EA4C5123EA4C5350EA013518BF52EA033541F4801143F4801338D0A0FB02CE4FF03C
:401580000005E1FB02E506F00042E0FB03E54FF00006E1FB03569CF0000F18BF4EF0010EA4F1FF04B6F5007F64F5407404D25FEA4E0E6D4146EB060642EAC62141EA555116
:4015C0004FEAC52040EA5E504FEACE2EB4F1FD0C88BFBCF5E06F1ED8BEF1004F08BF5FEA500E50F1000041EB045170BD06F0004646EA010140EA020081EA0301B4EB5C0472
:40160000C2BFD4EB0C0541EA045170BD41F480114FF0000E013C00F3AB8014F1360FDEBF002001F0004170BDC4F10004203C35DA0C341BDC04F11404C4F1200500FA05F3A4
:4016400020FA04F001FA05F240EA020001F0004221F0004110EBD37021FA04F642EB06015EEA430E08BF20EAD37070BDC4F10C04C4F1200500FA04F320FA05F001FA04F2C8
:4016800040EA020001F0004110EBD37041F100015EEA430E08BF20EAD37070BDC4F1200500FA05F24EEA020E20FA04F301FA05F243EA020321FA04F001F0004121FA04F2E7
:4016C00020EA020000EBD3705EEA430E08BF20EAD37070BD94F0000F0FD101F00046400041EB010111F4801F08BF013CF7D041EA060195F0000F18BF704703F00046520070
:4017000043EB030313F4801F08BF013DF7D043EA0603704794EA0C0F0CEA135518BF95EA0C0F0CD050EA410618BF52EA4306D1D181EA030101F000414FF0000070BD50EA0C
:40174000410606BF1046194652EA430619D094EA0C0F02D150EA013613D195EA0C0F05D152EA03361CBF104619460AD181EA030101F0004141F0FE4141F470014FF0000033
:4017800070BD41F0FE4141F4780170BD70B54FF0FF0C4CF4E06C1CEA11541DBF1CEA135594EA0C0F95EA0C0F00F0A7F8A4EB050481EA030E52EA03354FEA013100F0888054
:4017C0004FEA03334FF0805545EA131343EA12634FEA022245EA111545EA10654FEA00260EF000419D4208BF964244F1FD0404F5407402D25B084FEA3202B61A65EB03054E
:401800005B084FEA32024FF480104FF4002CB6EB020E75EB030E22BFB61A754640EA0C005B084FEA3202B6EB020E75EB030E22BFB61A754640EA5C005B084FEA3202B6EB7D
:40184000020E75EB030E22BFB61A754640EA9C005B084FEA3202B6EB020E75EB030E22BFB61A754640EADC0055EA060E18D04FEA051545EA16754FEA06164FEAC30343EA88
:4018800052734FEAC2025FEA1C1CC0D111F4801F0BD141EA00014FF000004FF0004CB6E711F4801F04BF01430020B4F1FD0C88BFBCF5E06F3FF6AFAEB5EB030C04BFB6EBDC
:4018C000020C5FEA500C50F1000041EB045170BD0EF0004E4EEA113114EB5C04C2BFD4EB0C0541EA045170BD41F480114FF0000E013C90E645EA060E8DE60CEA135594EACB
:401900000C0F08BF95EA0C0F3FF43BAF94EA0C0F0AD150EA01347FF434AF95EA0C0F7FF425AF104619462CE795EA0C0F06D152EA03353FF4FDAE1046194622E750EA41062A
:4019400018BF52EA43067FF4C5AE50EA41047FF40DAF52EA43057FF4EBAE12E74FF0FF3C06E000BF4FF0010C02E000BF4FF0010C4DF804CD4FEA410C7FEA6C5C4FEA430C41
:4019800018BF7FEA6C5C1BD001B050EA410C0CBF52EA430C91EA030F02BF90EA020F0020704710F1000F91EA030F58BF994208BF90422CBFD8176FEAE37040F00100704760
:4019C0004FEA410C7FEA6C5C02D150EA013C07D14FEA430C7FEA6C5CD6D152EA033CD3D05DF8040B704700BF8446104662468C461946634600E000BF01B5FFF7B7FF0028EB
:401A000048BF10F1000F01BD4DF808EDFFF7F4FF0CBF012000205DF808FB00BF4DF808EDFFF7EAFF34BF012000205DF808FB00BF4DF808EDFFF7E0FF94BF012000205DF82F
:401A400008FB00BF4DF808EDFFF7CEFF94BF012000205DF808FB00BF4DF808EDFFF7C4FF34BF012000205DF808FB00BF014B1868704700BF4C81FF1F0E4B70B51E460E4C55
:401A80000025E41AA410A54204D056F8253098470135F8E701F084FE084B094C1E46E41AA4100025A54204D056F8253098470135F8E770BDAC370000AC370000AC3700007F
:401AC000B437000010B5431E0A44914204D011F8014B03F8014FF8E710BD03460244934202D003F8011BFAE770472DE9F04788B0149F002B1E461299B8BF03F1004327F078
:401B00002007B6BF1E4600232D23462F1446109DDDF84CA00B7003D0452F03D1013501E0032300E0022307AA049206AA03928DE828042246334600F0B7FB472F804602D15E
:401B4000119BDB0728D5462F08EB050911D198F80030302B0AD10022002320463146FFF753FF18B9C5F10105CAF80050DAF8003099440022002320463146FFF745FF08B987
:401B8000302202E0CDF81C9006E0079B994503D9591C07911A70F8E74046079B159AC8EB0303136008B0BDE8F087034673B50029B8BF494203F8022BB4BF2D222B220929EC
:401BC00042701ADD0DF1070216460A2591FBF5F405FB1411092C01F1300102F8011D2146F4DC3031541E02F8011CB4421A460AD214F8012B03F8012BF7E71A4630242144F7
:401C000002F8024B5970101A02B070BD2DE9F04F91B00C46DDF8688016461F46054601F0DBF803681846099300F0AAFA00230E93D8F800300A90073323F0070303F108026A
:401C400094F81890D4F800B0C8F80020D3E90023C4E91223D4F84CA0D4F848802AF000430B934FF0FF32A74B40460B9901F014FCA0B94FF0FF32A34B40460B99FFF7D8FE92
:401C800060B90022002340465146FFF7C7FE10B12D2384F843309C4B9C4A0AE0424653464046514601F0F8FB002800F09281984B984AB9F1470F8CBF90469846032323617C
:401CC0002BF0040323604FF0000A3DE0B9F1670F00F08A81B9F1470F00F0868123600193636800210DF13302059002920093424653460691CDF81090CDF80CE02846FFF7A3
:401D0000F4FE09F0DF03472B804600F08481B9F1650F0D9900F28D8101394A4604F150000D91FFF742FF0E9A82468318012A236100F37C812268D10700F178819DF8333013
:401D400013B12D2384F84330009733460FAA2146284600F09FF9013002D14FF0FF3096E123685A0501D4236965E0B9F1650F40F2D580D4E9120100220023FFF745FE78B3A3
:401D80000123654A31462846B8470130E5D00E9B0D9A9A420BDB2368D80708D423689B0740F111814FF0000804F1190906E10A9B099A31462846B8470130CED04FF00008B7
:401DC00004F11A090E9B013B9845E7DA01234A4631462846B8470130BFD008F10108F1E70D9B002B29DC01234B4A31462846B8470130B2D00D9B23B90E9B13B92368D9078A
:401E0000CCD50A9B099A31462846B8470130A4D04FF0000904F11A0A0D9B5B42994509DA0123524631462846B847013095D009F10109F1E70E9B4246A7E00E9AA36D9A426B
:401E4000A8BF1A46002A914606DC4FF0000A29EAE97904F11A0B11E01346314642462846B8470130F1D178E701235A4631462846B84701303FF471AF0AF1010AA36DC9EBE2
:401E800003029245F0DB08EB03090D9A0E9B9A420FDB2368DA070CD40E9B0D9A9844C9EB08089B1A9845A8BF9846B8F1000F08DC0FE00A9B099A31462846B8470130EBD1AF
:401EC0004BE743464A4631462846B84701303FF444AF4FF0000928EAE87804F11A0A09E00123524631462846B84701303FF435AF09F101090D9A0E9B9B1AC8EB0303994518
:401F0000EEDB4BE7FFFFEF7F783600007C3600008036000084360000883600000E9A012A01DCDB0738D50123424631462846B84701303FF412AF0A9B099A31462846B8472C
:401F400001303FF40AAFD4E9120100220023FFF75BFD20B14FF0000804F11A090EE00E9B08F10102013B19E001234A4631462846B84701303FF4F1AE08F101080E9B013B67
:401F80009845F1DB534604F1500231462846B84701307FF403AFE0E64246012331462846B8470130EED1D8E601234A4631462846B84701303FF4D1AE08F10108E3680F9AE9
:401FC0009B1A9845F0DBE0680F9B9842B8BF18465DE062680EA8531C0DF1340E4BF480637FF474AE062201E012B90122626075E6002106910DF133018DE80C002360059029
:402000004246CDF81090CDF80CE0029153462846FFF76BFD80460D9BD81C02DB626893421DDDA9F102095FFA89F970E60133236184E6B9F1660F14D10029636807DD2161DC
:4020400013B92268D2071DD501330B4419E013B92268D00701D5023313E0012311E04FF067090D9B0E9A934205DB22682361D10708D5013305E0002BD4BFC3F10203012358
:40208000134423610D9B4FF0000AA36556E611B0BDE8F08F2DE9F04791461F460A698B6806469342B8BF1346C9F8003091F843200C46DDF8208012B10133C9F80030236834
:4020C000990642BFD9F800300233C9F80030256815F0060510D104F1190A07E00123524639463046C04701301AD00135E368D9F800209B1A9D42F1DB94F84330226800333B
:4021000018BF012392060FD5E118302081F843005A1C94F845102244023382F8431003E04FF0FF30BDE8F08704F1430239463046C0470130F4D02268D9F80050E36802F0E4
:402140000602042A08BF5D1B2269A3680CBF25EAE57500259342C4BF9B1AED184FF000091A344D4509D00123224639463046C0470130D5D009F10109F3E70020BDE8F08770
:40218000034613F8012B002AFBD1181A013870472DE9F74F03690C6980469C427FDC013C01F114074FEA840E00F1140606EB0E0357F82450019356F824300135B3FBF5F562
:4021C00007EB0E09C5B34FF0000A3846B446D34650F8043B9AB205FB02A21B0C4FEA124A05FB03A392B2C2EB0B0BBCF800204FEA134A5A441FFA83FBDCF800308145CBEB85
:40220000134303EB224392B242EA03424FEA234B4CF8042BDCD256F80E306BB9019B043B9E421A4602D3C8F8104005E01268043B002AF8D1013CF3E7404600F0E6FF00289D
:402240002BDB304601354FF0000E57F8042B036891B2C1EB0E0E120C99B27144C2EB134303EB214389B24FEA234EB94541EA034340F8043BE9D256F8242006EB840362B94D
:40228000043B9E421A4602D3C8F8104005E01268043B002AF8D1013CF3E7284600E0002003B0BDE8F08F00002DE9F04F456A95B08246219CCDE9022345B9102000F090FD79
:4022C000CAF82400456085600560C560DAF82430196859B15A68012393404A608B60504600F0BBFDDAF8243000221A60039BA04A002BBDBF01232360039B0023BCBF23F0C0
:4023000000430393DDF80C80A8BF236028F000431B0D1B0593421DD142F20F73209A1360029B43B9934A944BC8F31300002814BF1846104600E09048229B002B00F0468503
:40234000C37813B100F1080300E0C31C229A136000F03CBDDDE902450022002320462946FFF752FB074658B1209A01231360229B002B00F01E8581481860013800F026BDB2
:4023800012AB019313AB009322462B46504600F0B7FFC8F30A56049056B1C5F3130343F07F51204641F44011A6F2FF3611971DE0139B129E1E4406F23243202B0ADD029A86
:4023C00006F21240C3F1400322FA00F008FA03F3184304E0C3F12000029B03FA00F0FFF735F80123A1F1F871013E11930022644BFEF7EEFE58A3D3E90023FFF79DF858A3C4
:40240000D3E90023FEF7E6FE044630460D46FFF72DF855A3D3E90023FFF78EF802460B4620462946FEF7D6FE04460D4601F04AF800228346002320462946FFF7EFFA58B191
:402440005846FFF713F802460B4620462946FFF7DBFA08B90BF1FF3BBBF1160F0DD8DDE90223484901EBCB01D1E90001FFF7F4FA30B10BF1FF3B002300E00123109300E043
:402480001090129B9E1B731E079343BFC3F10008002307934FF00008BBF1000F06DB079BCDF82CB05B440793002705E00023CBEB0808CBF100070B931E9B092B28D8052B9E
:4024C000C4BF043B1E931E9BC8BF0025A3F10203D8BF0125032B20D8DFE803F0060E0204012302E0012308E000230A931F9B002B1DDD9946059321E000230A931F9B0BEB1B
:40250000030909F10103012B0593B8BF012315E0012500231E930A9501E001230A934FF0FF390022CDF8149012231F9206E04FF001094B46CDF81490CDF87C90DAF82440EA
:4025400000226260042101F114029A421CD86268490001326260F6E761436F63A787D23FB3C8608B288AC63FFB799F501344D33F0000F07F8A360000933600008936000040
:402580000000F83FA03600006168504600F030FCDAF8243020601B680693059B0E2B00F25B81002D00F05881DDE90234BBF1000FCDE90E3430DD9F4A0BF00F034FEA2B1509
:4025C00002EBC303E80618CBCDE908340CD5DDE90E01994B05F00F05D3E90823FFF7D6F80324CDE9020100E00224934E6DB1E90708D5DDE90801D6E90023FEF79DFFCDE96D
:40260000080101346D100836F0E7DDE90823DDE90201FFF7BBF820E0CBF1000505B3DDE90E01844B05F00F0203EBC203D3E90023FEF782FFCDE902017F4E2D11002302242F
:4026400055B1EA0705D5D6E90023FEF775FF013401236D100836F3E71BB1CDE9020100E00224109BE3B1DDE902560022734B28463146FFF7D3F998B1059B8BB1B9F1000F03
:4026800040F3E6800BF1FF330893314600226C4B2846FEF751FF0134CDE902014E4602E0059ECDF820B02046FEF7E0FEDDE90223FEF742FF634B0022FEF78CFDA1F150731C
:4026C00004460C931D46D6B9DDE9020100225E4BFEF77EFD22460C9BCDE90201FFF7BCF9002840F03F820C99224601F10043DDE90201FFF793F9002840F02B82A8E00A9AB1
:402700004C4B711E002A49D003EBC103D3E9002300204E49FFF73AF822462B46FEF758FDCDE90C01069CDDE9020100F0CBFE0546FEF79CFE02460B46DDE90201FEF748FD40
:40274000DDE90C23303504F8015BCDE90201FFF765F9002840F01D83DDE9022300203749FEF736FDDDE90C23FFF758F9002840F0D180069BE31AB3426ADADDE90C0100223E
:402780002F4BFEF7D9FE0022CDE90C01DDE902012B4BFEF7D1FECDE90201C4E703EBC1012246D1E900012B46FEF7C6FE069BCDE90C011D469C19DDE9020100F083FE064688
:4027C000FEF754FE02460B46DDE90201FEF700FD303605F8016BAC42CDE902014FF0000222D11A4BDDE90C01FEF7F4FC02460B46DDE90201FFF730F9002840F08B80DDE9CD
:402800000C2300201149FEF7E3FC02460B46DDE90201FFF703F9D8B114F8013C621E302B40F0B7821446F7E7054BFEF785FECDE90201C0E7A0360000783700000000F03F9D
:402840000000244000001C40000014400000E03FDDE90E34CDE90234139B002B7CDBBBF10E0F79DCAB4B03EBCB03D3E900671F9B002B14DA059B002B11DC40F06C81002244
:40288000A54B30463946FEF757FEDDE90223FFF7D9F8059D2E46002840F05F8165E1069CDDE9028932463B4640464946FEF76EFF00F008FE0546FEF7D9FD32463B46FEF746
:4028C0003BFE0B46024649464046FEF781FC05F1300E069B04F801EBC3EB040E059B73452DD102460B46FEF775FC8046894602460B4630463946FFF791F878B942464B46C1
:4029000030463946FFF780F8002800F04482EB0704D440E2DDF820B000E01C4614F8012C631E392A07D1069A9A42F6D1069930220BF1010B0A701A7801321A702BE200225A
:40294000764BFEF7F9FD0022002380468946FFF75BF80028A6D01EE20A9A002A2BD01E9A012A0ADC119A12B103F2334302E0129BC3F136033D46444613E0059B5D1EAF42F7
:40298000BFBF0B9BEA1B9B180B93059BB6BF2F467D1B0025002BA7BF4446059BC3EB08040023079A01211A4450469844079200F0F3FA064602E03D4644460A9E5CB1079B23
:4029C000002B08DDA342A8BF2346079AC3EB0808E41AD31A0793002F1DDD0A9BABB18DB131462A46504600F071FB049A01460646504600F0DAFA04990890504600F02DFA80
:402A0000089B04937A1B06D000E03A460499504600F05CFB04900121504600F0BDFA0B9B05465BB31A460146504600F04FFB1E9B0546012B18DC029B83B9039BC3F3130347
:402A400073B9039B23F000473F0D3F054FB1079B08F1010801330793012702E0002700E0029F0B9B73B100E000272B6905EB8303186900F044FAC0F1200004E01E9B012B5A
:402A8000D9DD0B9F0120079B184410F01F0008D0C0F12003042B02DDC0F11C0002E006D018461C30079B8044034404440793B8F1000F05DD42460499504600F055FB0490D7
:402AC000079B002B05DD29461A46504600F04CFB0546109B23B32946049800F096FB00281EDA00230A220499504600F0CDF90A9B0BF1FF3B0490002B00F05F8131460023D7
:402B00000A22504600F0C0F9B9F1000F06463FDC3BE000BFA03600000000144000002440059B002B2BDC1E9B022B28DDDDF81490B9F1000F11D129464B460522504600F024
:402B4000A3F901460546049800F05FFB00280CDC03E0354600E000252E461F9B069C6FEA030B09E03546DDF820B0069B069A5C1C312313700BF1010B05960026F7E00A9BB9
:402B8000DDF8149023B9069CB2E01E9B022BCFDC002C05DD31462246504600F0E5FA06469FB17168504600F023F90446326906F10C01023292000C30FEF784FF01222146A5
:402BC000504600F0D1FA059000E00596029B069F03F00103079329460498FFF7D9FA3146044600F13008049800F00FFB059A02902946504600F025FBC36802463BB9014659
:402C00000A90049800F001FB0A9A034600E00123114650460A9300F020F90A9B53B91E9A42B9079A32B9B8F1390F2AD0029B002B1CDC1DE0029A002A04DB1BD11E9ACAB98A
:402C4000079ABAB9002B13DD01220499504600F08BFA2946049000F0D8FA002803DC07D118F0010F04D0B8F1390F0AD004F131087C1C0CE0002B07F101040BDDB8F1390F4C
:402C800003D139233B70013756E008F1010887F800806CE0069B2746E31A4B4504F8018C3BD000230A220499504600F0EDF8059B04909E424FF00A024FF00003314650464A
:402CC00004D100F0E1F80646059084E700F0DCF8002306460A220599504600F0D5F8059079E700230A220499504600F0CDF8049029460498FFF74CFA069B00F1300804F8CD
:402D0000018BE31A4B45ECDB069B0596B9F1010FACBF4B4401331F46002601220499504600F022FA2946049000F06FFA002803DC15D118F0010F12D03C4614F8013C621E14
:402D4000392B09D1069B934204D10BF1010B3123069A02E01446F0E70133137007E03C4614F8013C621E302B01D11446F8E72946504600F072F8059B6BB12EB19E4203D0BF
:402D80003146504600F069F80599504600F065F801E0DDF820B00499504600F05EF80023209A23700BF101031360229B1BB11C6001E008480AE0069808E0B9F1000F3FF7BD
:402DC000E2AE1E9B022B7FF7DEAEB1E615B0BDE8F08F00BF88360000004870475081FF1F024B0146186800F0E7BA00BF4C81FF1F70B5456A04460E463DB91020FFF7F0FFA4
:402E00006062456085600560C560656AEB6843B1636ADB6853F8260078B1026843F8262017E021220421204600F0B8FA636AE860DB68002BECD1002070BD012101FA06F505
:402E40006A1D9200204600F0A9FA0028F3D04660856000230361C36070BD70B5446A06460D463CB91020FFF7BBFF7062446084600460C4603DB1736A6A68DB6853F822106D
:402E8000296043F8225070BD2DE9F04106460C460D691F4601F1140E0023DEF80000013381B202FB0171000C0F0C02FB007089B201EB00419D424FEA10474EF8041BECDC74
:402EC000D7B1A3689D4212DB616830460131FFF78FFF8046226904F10C01023292000C30FEF7F0FD21463046FFF7B7FF444604EB850301355F6125612046BDE8F081030CB6
:402F00001B0413B90004102300E0002310F07F4F04BF0002083310F0704F04BF0001043310F0404F04BF80000233002803DB420003D5581C7047184670472020704703681B
:402F400013F007020BD0D90722D49A074BBF5B089B08036003604CBF01200220704799B209B91B0C102213F0FF0F04BF1B0A0832190704BF1B090432990704BF9B08023208
:402F8000D90702D45B0805D00132036010467047002070472020704710B50C460121FFF727FF01224461026110BD2DE9F74F14460A69236988469A42BEBF0B46A0461C46F0
:402FC000D8F81070D4F81090D8F80830D8F8041007EB09069E42C8BF0131FFF709FF00F114052B4605EB860C0022634502D243F8042BFAE704F1140208F1140102EB890319
:4030000001EB87070093009B0192934257D9B2F800B0BBF1000F23D08946AE464FF0000859F8044BBEF800A0A3B20BFB03A34FEA144ADEF8004043444FEA14480BFB0A84EA
:40304000F24604EB13449BB243EA04434F454FEA14484AF8043B01D9D646E1E7CEF80480019B0432B3F802A0BAF1000F21D02C4689462B684FF00008B9F800E0B4F802B08B
:403080009BB20AFB0EBEA346F04443EA08434BF8043B59F8043BB4F804E01B0C0AFB03E34F4503EB18434FEA134801D95C46E3E763600435A7E75CF8043D13B9013E002E9A
:4030C000F9DC066103B0BDE8F08F00002DE9F843154612F0030206460F4607D0214C013A002354F82220FFF7CFFE0746AD1036D0746A3CB91020FFF773FE706244608460A2
:403100000460C460D6F82480D8F808404CB940F271213046FFF740FF04460023C8F8080003604FF00008EB070AD5394622463046FFF73BFF814639463046FFF78EFE4F46F9
:403140006D100CD0206808B10446ECE7224621463046FFF72AFF2060C0F80080F4E73846BDE8F883683700002DE9F0470C460746914626694FEA621A56444968A368751C76
:40318000AB4202DA01315B00FAE73846FFF730FE002380461A4600F11401534503DA41F823200133F9E72AEAEA73206901EB830319F01F0904F1140101EB800E14D0C9F123
:4031C000200C002208689A4600FA09F0024343F8042B51F8042B8E4522FA0CF2F2D8CAF8042042B1B51C06E0043B51F8042B8E4543F8042FF9D8013D3846C8F810502146C4
:40320000FFF72BFE4046BDE8F08703690A6910B59B1A11D192001430143183180A4453F8044D52F8041D8C4202D007D3012010BD9842F4D3002010BD184610BD4FF0FF30F8
:4032400010BD2DE9F8430C460746114620461546FFF7DBFF061E08D131463846FFF7C8FD012303614661BDE8F883BCBF23462C4638466168BABF1D4601260026FFF7B8FD3C
:403280002B69C660266905F1140904F1140101EB860709EB830800F114054FF0000C51F8042B59F8044B93B29C44A3B2240CC3EB0C03C4EB124202EB23429BB24FEA224C93
:4032C000C84543EA02428E4645F8042BE7D8BE450ED25EF8041B8AB26244131403EB114392B242EA03424FEA234C45F8042BEEE755F8043D0BB9013EFAE70661BDE8F88317
:403300002DE9F3411C4601219046089E099DFFF76FFDC4F31302C4F30A5407460CB142F480120192B8F1000F19D002A840F8088DFFF705FE009B48B1019AC0F1200102FAE7
:4033400001F10B43C2407B61019200E07B61019B002B14BF02210121BB61396107E001A8FFF7EDFD019B01217B613961203034B1A4F2334404443460C0F1350009E0A0F228
:40338000324007EB810330601869FFF7B8FDC0EB41102860384602B0BDE8F08138B502FB01F4214600F008F8054618B122460021FEF793FB284638BD70B5CD1C25F00305BB
:4033C00008350C2D38BF0C25002D064601DBA94202D90C23336046E000F05CF8234B1C681A462146A1B10B685B1B0ED40B2B03D90B60CC18CD501EE08C420BBF63684B6880
:403400001360636018BF0C4615E00C464968E9E7174C23681BB9304600F02CF820602946304600F027F8431C18D0C41C24F00304A0420DD12560304600F02DF804F10B0093
:40344000231D20F00700C31A0ED05A42E25070BD211A304600F00EF80130EBD10C233360304600F018F8002070BD00BFB881FF1FB481FF1F38B5064C00230546084623603F
:40348000FDF712F9431C02D1236803B12B6038BDC881FF1F704770474FEA410C7FEA6C5C02D150EA013C0AD14FEA430C7FEA6C5C02D152EA033C02D14FF0000070474FF05C
:4034C000010070474FEA410212F5001215D211D56FF47873B3EB625212D94FEAC12343F0004343EA505311F0004F23FA02F018BF404270474FF00000704750EA013005D11E
:4035000011F0004008BF6FF0004070474FF00000704700BF00000000466C616720626C69766572207361742E2050696E310D0A0044432D4D6F746F722D50574D20617070EE
:403540006C69636174696F6E20737461727465640D0A0000303A2053746F700D0A000000313A20447269766520666F7277617264730D0A00323A2044726976652062616393
:403580006B77617264730D0A00000000713A2044656372656173652073706565640D0A00773A20496E6372656173652073706565640D0A0042726F6F6D62612072756E0DB2
:4035C0000A00000044656372656173696E672073706565640D0A0000496E6372656173696E672073706565640D0A000053746F700D0A000053657420646972656374696FDD
:403600006E3A20666F7277617264730D0A00000053657420646972656374696F6E3A206261636B77617264730D0A00005475726E696E672072696768740D0A005475726E2E
:40364000696E67206C6566740D0A0000305100404000F0510040100000000140001000140140000800400140000A004C014000020050014020004300494E4600696E6600C2
:403680004E414E006E616E003000496E66696E697479004E614E00504F534958002E0000000000000000F03F000000000000244000000000000059400000000000408F407D
:4036C000000000000088C34000000000006AF8400000000080842E4100000000D01263410000000084D797410000000065CDCD41000000205FA00242000000E876483742AF
:40370000000000A2941A6D42000040E59C30A2420000901EC4BCD64200003426F56B0C430080E03779C3414300A0D8855734764300C84E676DC1AB43003D9160E458E143A7
:40374000408CB5781DAF154450EFE2D6E41A4B4492D54D06CFF08044F64AE1C7022DB544B49DD9794378EA4405000000190000007D000000000000000080E03779C34143DC
:40378000176E05B5B5B89346F5F93FE9034F384D321D30F94877825A3CBF737FDD4F1575F8B500BFF8BC08BC9E4670474D00000025070000F8B500BFF8BC08BC9E4670476A
:4037C00029000000D8370000C880FF1FC000000048000000000000000000000032010000B80B0000B80B0000D081FF1F0000E02EC05D00001800000000366E010000000013
:4038000000000000000000000000000000000000000000000000000000000000763600000000000000000000000000000000000000000000000000000000000000000000DC
:4038400000000000000000000000000000000000000000000000000000000000EC80FF1F9D3600009E3600009E3600009E3600009E3600009E3600009E3600009E3600001F
:403880009E3600009E360000FFFFFFFFFFFFFFFFFFFFFFFFFFFF0000000000000000000000000000000000000000000000000000000000000000000000000000000000006E
:4038C00000000000000000000000000000000000000000000000000000000000000000000000000000000000000000000000000000000000000000000000000000000000C8
:403900000000000000000000000000000000000000000000000000000000000000000000000000000000000000000000000000000000000000000000000000000000000087
:403940000000000000000000000000000000000000000000000000000000000000000000000000000000000000000000000000000000000000000000000000000000000047
:403980000000000000000000000000000000000000000000000000000000000000000000000000000000000000000000000000000000000000000000000000000000000007
:020000040003F7
:0200000480007A
:400000000245004006520040015B00400864004003650040590201403303014004050140030701405908014050090140500A01404A0B0140100D0140620E0140340F014009
:4000400002150140051701404A1801404E190140501A0140471B01400540014005410140054201400743014009450140034601400347014003480140034901400E4C0140BA
:400080000F4D01400A5001400151014000010101000808201009110C618064402F84820D830D887889388A478B0D8E0D8F0D89078A728B0F00010A040B010F0117041A07C7
:4000C000220827042B0230013102320833013404350436023F144030410545D14602480749FF4AFF4BFF4DA04F04501852805405580459045A045B045C265D665F016040E4
:4001000062C06440654066C068C06AC06CC06EC082058F01920295019A019B029D02B001B204B302B402B701BF04C020C106C5D0C601C702C816C9FFCAFFCBFFCDA0CF04D8
:40014000D018D280D405D804D904DA04DB04DC77DD77DF01E040E2C0E440E540E6C0E8C0EAC0ECC0EEC00380041109020A040F08168019021A041B081C511D081F20202047
:400180002240260427482E1430203348360838803C103F804204450849014A084D014F88504052085380574059015A805B085C405D015E08710276808D02C058C24AC410A7
:4001C000CA60CC4ECE38D044D214D6DB9610A420AB20B0109610A420E606020130014040410145D04721483249FF4AFF4BFF4DA04F0450185420560458045A045B045C0408
:400200005D245F01604062C06440654066C068C06AC06CC06EC08573870C8807891C8B638C058D088E0291639201950C980799049C079D0F9F70A121A208A773A942AD7F3E
:40024000B002B208B30FB404B51CB601B760BB08BE51C002C105C220C401C5BCC6FDC70EC81FC9FFCAFFCBFFCC22CEF0CF0CD08CD110D418D604D804D904DA04DB04DC12AF
:40028000DD18DF01E840E901EAC0EB010140030406800A090B800C100E080F3010401408160419821A041B081D031F02210C22102312281229202A0130283241388039281B
:4002C000400142044502460248804A024B044F015010512053C4560257045B025D0160406220630264046604674278808040874090089302942096409721980499209AA060
:400300009C609E0A9F30A101A28CA4C4A504A72AA920B584C013C20BC408CA0FCC0FCE0ED09CD208D681D8FDDE08E804040108080C020D040E041502160818041A021E087D
:4003400022012302240628062F053008310432013302340637013E053F045441580459045B045C515D205F0183028808890692029504960499069E05A201A301AF01B00849
:40038000B106B204B401B501B602B902BE05BF11C010C106C5D0C601C702C816C9FFCAFFCBFFCDA0CF04D018D280D405D804D904DA04DB04DC05DD55DF01E040E2C0E440C8
:4003C000E540E6C0E8C0EAC0ECC0EEC000800328042008480A040B200C0A0E01108011041320164019201AA41DA01E011F0520402148274828402A402E022F0233083410FA
:400400003608371439803B0C3C083D063E303F0245804C084D015408564058285A805C405D015F04610874028210900892109640970198049A809B049C109D809E089F6809
:40044000A284A301A404B004C047C2B7C41ECA99CC62CEA8D010D220D6DED802E404EC8090089210964097019A809B049C109D809E089F68A284A301A404A801E040E8013E
:4004800002050B011202150116092604300232083404360137013E104040410245D24610480B49FF4AFF4BFF4DA04F04501852805405580459045A045B045C335D335F012F
:4004C000604062C06440654066C068C06AC06CC06EC080108140824083038510860388DC89218A228B0E8C098ED0930C940C950C9671972399109E20A308A410A521A6ACA3
:40050000A706A814AD10B2E0B310B41FB50FB760B980BA08BB20C001C604C9FFCA07CBFFCC40CD20CEF0CF05D008D280D405D804D904DA04DB04DC11DD41DF01E040E1A836
:40054000E240E3200102040C0640070509020B200E100F02102014101608180119021A041B0A1C041E102240268427052C102E402F803020332837253B203C083E103F028F
:4005800043224740482049014F0253105640578059015A845D805F0971027680C0F8C2ACC464CAD0CCE2CEE4D015D6DBE810EE08802082109610A420E20107070D01130418
:4005C000250831083301350437023A083F015608580459045B045C415D205F018320850187048A028B418D018E028F10931E9501960497089B209D019E019F02AA04B00439
:40060000B140B403B520B71FBE11BF50C036C105C201C402C6E0C70CC818C9FFCAFFCBFFCC62CDA0CEF0CF41D00CD602D72CD804D924DA04DB04DC80DD81DE08DF01E64034
:40064000E702E910EA30EB10ED10EE10EF120080012002010A2212041A041B011F08200121022220255426022F203080312233043501395A3D803F084108420649104A048B
:400680004B40512052045D825E205F04620264486721688069486A096B0478807B2082128301880289108B489008922093049481956096CB972099A39A209CCA9E099F349B
:4006C000A109A28CA394A46CA504A622A721AC20AF04B121C003C205C402CA40CC8FCE5FD00ED20CD6F0D8F1DE0A040E053C07C2080809080A020C040D100E0315181B432A
:400700001C021D3C1E0C1FC1210425E72718280E29FF2F04300131803320351F360E375839023BA03F0456025712580459045B045C115D105F018315840289138B04950A87
:400740009714980199139B0C9F08A503A714B202B30FB401B710BB08BE14BF40C024C103C5EEC6C0C70BC81BC9FFCAFFCBFFCEF0CF44D00CD401D804D904DA04DB04DC107D
:40078000DD11DF01E6C0EA40EB020088012004080A020F0813201A021B021D041E08200421912244264027102A012B1A2F20300831903688371038A43D023E204501462068
:4007C00047104F09560857205A085D105E885F0168046A406B207078810485108720884090089480952296C299309A219E089F30A101A288A318A46CAB20B080B210B38013
:40080000B510C027C241C402CA4FCC7ECEAED0E0D6F2E401E810EE0C3220330834083680CCF057809C08A6A0A708D4409C08A6A0A708AB80EE208008862087089C08A6A0DD
:40084000A708E6605140530155068F01A102A902D407D604E00283019580A50493029580A9042408A680C820AE80B404EE1008200B400F081F8034026702882093029580FD
:40088000C20BC601CC01D601E2011020700480048820AB04AF80B340B402B540C408DC01E604E808EA04EC0800FE010108C40C360D010E1A101611011C161D0100FF0000A1
:4008C000000B080008000400800040808000800000000000D02B2B0020000400000F0F000F0000000000000000000000000000000000000000000000000000000000000022
:4009000000000000000000000000000000000000000000000000000000000000000000000000000000000000000000000000000000000000000000000000000000000000B7
:400940000000000000000000000000000000000000000000000000000000000000000000000000000000000000000000000000000000000000000000000000000000000077
:400980000000000000000000000000000000000000000000000000000000000000000000000000000000000000000000000000000000000000000000000000000000000037
:4009C00000000000000000000000000000000000000000000000000000000000000000000000000000000000000000000000000000000000000000000000000000000000F7
:0200000490006A
:0400000000004005B7
:0200000490105A
:04000000BC90ACAF55
:0200000490303A
:02000000EFA867
:0200000490402A
:4000000000000000000000000000000000000000000000000000000000000000000000000000000000000000000000000000000000000000000000000000000000000000C0
:400040000000000000000000000000000000000000000000000000000000000000000000000000000000000000000000000000000000000000000000000000000000000080
:400080000000000000000000000000000000000000000000000000000000000000000000000000000000000000000000000000000000000000000000000000000000000040
:4000C0000000000000000000000000000000000000000000000000000000000000000000000000000000000000000000000000000000000000000000000000000000000000
:0200000490501A
:0C00000000012E16106900012E2F0011C7
:00000001FF