:400000000080002011000000950600009506000008B5044B1A6803F53F5302331A6000F059FB00BFFA46004010B5054C237833B9044B13B10448AFF300800123237010BDED
:400040008881FF1F000000000C350000084B10B51BB108490848AFF300800848036803B910BD074B002BFBD0BDE81040184700BF000000008C81FF1F0C350000C880FF1F00
:400080000000000008B500F0F9FD044B187001225A7000F0F9FD00F005FE08BDA481FF1F08B50D4B9B7813F0FF0F12D100F068FC094B9870094800F0CDFB094B1B7813F039
:4000C000010F03D00122044BDA7002E00222024BDA7000F05DFC08BDA481FF1F103500008045004008B53038472842D8DFE800F0302A2D41414141414141414141414141F0
:40010000414141414141414141414141414141414141414141414141414141414141414141414141414141413341414141414141412441413941362700F09AF808BD00F0A8
:40014000BFF808BD00F0F2F808BD00F005F908BD00F0D4F808BD00F033F908BD00F012F908BD002000F0ECFF18B100F0FBFF01F005F808BD38B500F04BFB044609E000F0E8
:4001800041FB054600F050FB2846FFF7ABFF013CE4B2002CF3D138BD08B562B6294800F085FB294800F0EAFE284800F0E7FD00F01BFB00F0B9FD00F0ADFF00F0B9FF00F094
:4001C0004DFC00F0B7FC00F045FE00F0AFFE00F01DFD1F4800F03EFB1E4800F03BFB1E4800F038FB1D4800F035FB1D4800F032FB1C4800F02FFB3C2000F0BEFC4FF4FA705C
:4002000000F072FB184800F025FB184BDB78012B05D100F0B7F80022144B9A7006E0022B04D100F0CDF80022104B9A7000F0B0FB00F0B2FE00220D4BDA704FF4FA6000F05F
:4002400053FBDBE775010000A100000085000000283500004C350000583500006C3500008435000098350000AC350000A481FF1F10B5114800F0EEFA104B1B78DBB20A2B76
:4002800003D800220D4B1A7004E00C4A13780A3BDBB21370094B5B78DBB2012B04D1074B187800F069FC10BD044C207800F0F8FB207800F0F1FD10BDBC350000CC80FF1F23
:4002C00008B50C4800F0C6FA0B4A13780A33DBB213701378DBB2642B02D96422064B1A70054B5B78DBB2012B03D1034B187800F043FC08BDD0350000CC80FF1F10B5094826
:4003000000F0A8FA084C00232370207800F05CFB207800F0C5FB207800F052FD207800F0BBFD10BDE4350000CC80FF1F10B5084800F090FA074C01236370FFF7DFFF322391
:400340002370207800F040FB207800F039FD10BDEC350000CC80FF1F10B5084800F07AFA074C00236370FFF7C9FF32232370207800F096FB207800F08FFD10BD0836000071
:40038000CC80FF1F10B50C4800F064FAFFF7E4FF0A4C606800F0A8FAFFF7C8FF207800F00FFD002000F010FBA06800F09DFA207800F00AFB10BD00BF24360000CC80FF1F0B
:4003C00010B50C4800F046FAFFF7C6FF0A4C606800F08AFAFFF7AAFF207800F0F5FA002000F0EEFCA06800F07FFA207800F0E8FC10BD00BF34360000CC80FF1FFEE700BF76
:40040000F0B40022174611E050F82760F3B226F0FF0608E001EB420511F812406D78A5550132013BDBB2002BF4D10137232FEBD9F0BC70470F4B1B78DBB203F007010E4A5A
:4004400011701B09013213704023A2F26272137004220A490A7001F603210B70202303310B7005310A70064A13704422054B1A70704700BFCF0100496E5800401D51004052
:400480002B5B00407658004008B50A46002101F020FB08BD38B50C222F4B1A8018232F490B7002310A802E4A137019250232158002321370EF21023211800232137040F2D8
:4004C000DF1228490A8002310B7002310A80264A13700222254B1A7008224FF040231A70032103F500731970214B1B78DBB221490B70214B1A8041F25122023B1A8000240E
:400500000CE01E4B1B7803F0010343EA440404F003044FF4F07000F043FE013D0DB1032CEFD115B90320FFF769FF154B4FF480721A8007221A70002212490A7048200231EA
:4005400008701A700222033B1A700F4A137843F03F03137038BD00BF80400040824000408640004090400040964000400043004008010049A1460040224200402542004088
:400580000440004006400040A243004008B501F095FA08BD38B572B62D4A137843F00403137000240CE02B4D630019194A0011462A44084691882858FFF766FF0134E4B2FD
:4005C000062CF0D924494FF09040FFF719FF234A137843F0020313701032137843F0020313701F4C237843F040032370A2F58632513A137843F010031370082219491A4810
:40060000FFF7C4FF0A2219491948FFF7BFFF082218491948FFF7BAFF082218491848FFF7B5FF184A137843F008031370164D61232B70FFF72FFF81232B700122134B1A7090
:40064000FFF7F8FE0E2221461148FFF79FFF38BDE8460040443600009000004803500140A0430040880800480251004090080048C05100409C08004812510040A40800487F
:4006800022510040224300400048004004000840B043004008B501F0E5F903680C2B00D1FEE7FEE708B5094B1A681044084BC31AB3F5007F02DC054B186005E001F0D2F98D
:4006C0000C2303604FF0FF32104608BDD880FF1FD081FF1F08B5104E104D16E029686B68AC68002204E051F8040B43F8040B0432A242F8D1E868002203E0002143F8041BB7
:4007000004328242F9D11035013E002EE6D101F0AFF9FFF741FDFEE701000000BC37000008B5104A104B1A60104A136843F40073136000230AE0032B03D80D4A52F823101E
:4007400000E00C490C4A42F8231001332F2BF2D90A4B1A780A4B1A70074A0A4B1A60FFF719FF08BD0004FA050CED00E014ED00E000000000950600000080FF1FBC76004007
:40078000C080FF1F08ED00E07222084B1A702022A3F580731A700622A2331A70472210331A700022B03B1A70704700BF8965004010B500F0FDFC04460A4A137843F0200319
:4007C0001370A2F58072137843F0100313700232137843F01003137000F076F8204600F0EBFC10BD9965004008B5054B1B7823B9FFF7CAFF0122024B1A70FFF7D9FF08BDA3
:40080000AA81FF1F014B1878704700BF4A650040044B1B7813F0200F01D0012070470020704700BF69640040024B1B780BB1024B18707047AA81FF1F4B640040034B1B788D
:4008400013F0040FFAD1024B187070476B6400404B64004038B5074B1B782BB938BDFFF7EDFF0134A4B201E005460024285D0028F5D138BDAA81FF1F014B1B6858657047B1
:4008800008ED00E04001C0B2014B1870704700BF05E400E02022014B1A60704700E100E02022014B1A60704780E100E010B50446FFF7F6FF2046FFF7DFFF0720FFF7E2FFEB
:4008C000FFF7E8FF10BD00BF054A137843F0040313701032137843F004031370704700BFA243004001BE704710B5044605E0084B186800F055FCA4F50044B4F5004FF6D8B2
:40090000034B586800FB04F000F04AFC10BD00BFDC80FF1F08B5034B1B7A00FB03F000F03FFC08BDDC80FF1F70B504460E46074B1D681F2802D90020FFF7D4FF04F01F04CA
:40094000103455F8240045F8246070BD08ED00E038B504460D46072902D90020FFF7C2FF1F2C02D90020FFF7BDFF04F01F0000F1604000F564406D01EDB2057038BD00BF28
:40098000024B187800F00300704700BF01510040024B187800F00300704700BF80450040024A137843F08003137070477A640040014B1870704700BF0A640040014B187063
:4009C000704700BF4A640040014B1870704700BF2A640040014B1870704700BF8A640040014B1878704700BF6A640040014B1878704700BF5A64004008B501E0FFF7F6FFCA
:400A0000FFF7EEFF10F0100FF8D108BD10B5114A137803F0C00343F0090313700E4C237843F0010323706420FFF7C2FF6420FFF7C5FF3220FFF7C8FF0020FFF7CBFF00F0EC
:400A4000B7FB237843F01003237000F0B5FBFFF7D3FF10BD7A6400409A64004008B5054B1B7823B9FFF7D2FF0122024B1A70FFF797FF08BDAC81FF1F024A137843F0800359
:400A8000137070477F640040014B1870704700BF0F640040014B1870704700BF4F640040014B1870704700BF2F640040014B1870704700BF8F640040014B1878704700BFB3
:400AC0006F640040014B1878704700BF5F64004008B501E0FFF7F6FFFFF7EEFF10F0100FF8D108BD10B5114A137803F0C00343F0090313700E4C237843F00103237064200F
:400B0000FFF7C2FF6420FFF7C5FF3220FFF7C8FF0020FFF7CBFF00F04BFB237843F01003237000F049FBFFF7D3FF10BD7F6400409F64004008B5054B1B7823B9FFF7D2FFB5
:400B40000122024B1A70FFF797FF08BDAD81FF1F024A137843F080031370704772640040014B1870704700BF02640040014B1870704700BF42640040014B1870704700BF97
:400B800022640040014B1870704700BF82640040014B1878704700BF62640040014B1878704700BF5264004008B501E0FFF7F6FFFFF7EEFF10F0100FF8D108BD10B5114A26
:400BC000137803F0C00343F0090313700E4C237843F0010323706420FFF7C2FF6420FFF7C5FF3220FFF7C8FF0020FFF7CBFF00F0DFFA237843F01003237000F0DDFAFFF7D1
:400C0000D3FF10BD726400409264004008B5054B1B7823B9FFF7D2FF0122024B1A70FFF797FF08BDAE81FF1F08B500F0C1FA0B4A137843F020031370A2F58072137843F086
:400C40001003137002F58172137843F01003137000F0B2FA0822024B1A6008BD9865004000E100E0014B1878704700BF68640040014B1878704700BF6A650040014B1878B5
:400C8000704700BF5864004001E0044B1B78044B1B7813F0080FF8D1704700BF586400406A65004008B501E00A4B1B780A4B1B7813F0080FF8D100F07BFA084B1A7842F0EC
:400CC00003021A701A7802F0FC021A7000F074FA08BD00BF586400406A6500409864004038B507250C4B1D7008240C4B1C600C490320FFF719FE29460320FFF729FEFFF70A
:400D0000D1FFFFF7AFFFFFF7B3FF0022054B1A7003F581731C7038BD8865004080E100E0450D00008864004008B5054B1B7823B9FFF7D6FF0122024B1A70FFF775FF08BDD2
:400D4000AF81FF1F704700BF014B1B681864704708ED00E04001C0B2014B1870704700BF00E400E00122014B1A60704700E100E00122014B1A60704780E100E010B50446C6
:400D8000FFF7F6FF2046FFF7DFFF0720FFF7E2FFFFF7E8FF10BD00BF024A137843F080031370704773640040014B1870704700BF03640040014B1870704700BF43640040A7
:400DC000014B1870704700BF23640040014B1870704700BF83640040014B1878704700BF63640040014B1878704700BF5364004008B501E0FFF7F6FFFFF7EEFF10F0100F44
:400E0000F8D108BD10B5114A137803F0C00343F0090313700E4C237843F0010323706420FFF7C2FF6420FFF7C5FF3220FFF7C8FF0020FFF7CBFF00F0BBF9237843F0100355
:400E4000237000F0B9F9FFF7D3FF10BD736400409364004008B5054B1B7823B9FFF7D2FF0122024B1A70FFF797FF08BDB081FF1F024A137843F08003137070477E64004094
:400E8000014B1870704700BF0E640040014B1870704700BF4E640040014B1870704700BF2E640040014B1870704700BF8E640040014B1878704700BF6E640040014B187822
:400EC000704700BF5E64004008B501E0FFF7F6FFFFF7EEFF10F0100FF8D108BD10B5114A137803F0C00343F0090313700E4C237843F0010323706420FFF7C2FF6420FFF7CA
:400F0000C5FF3220FFF7C8FF0020FFF7CBFF00F04FF9237843F01003237000F04DF9FFF7D3FF10BD7E6400409E64004008B5054B1B7823B9FFF7D2FF0122024B1A70FFF7F0
:400F400097FF08BDB181FF1F014B1B681865704708ED00E04001C0B2014B1870704700BF04E400E01022014B1A60704700E100E01022014B1A60704780E100E010B50446BA
:400F8000FFF7F6FF2046FFF7DFFF0720FFF7E2FFFFF7E8FF10BD00BF1022014B1A60704780E200E008B50A280FD00C2802D0082806D102E04FF4805209E04FF4807206E0DE
:400FC0000020FFF78FFC002201E04FF480620021094B198042F2107303FB02F303F6C413064A82FB0302DB17C3EBE223044A1360044B198008BD00BFBC81FF1FAD8BDB6826
:40100000C081FF1FBE81FF1F38B500F0D1F804461F4A137843F0020313701032137843F002031370193A137843F0010313701032137843F00103137002F5AA5219321378E5
:4010400003F0FE0343F0020313700422114B1A70013B1A7842F040021A701A7802F0FC021A70C822053B1A700225A3F59753123B1D70094A137843F0080313700A20FFF7E7
:4010800049FC064B1D60204600F096F838BD00BFAB4300400E5900402F5B004080E200E010B504460A280DD00C2802D0082804D101E0C42207E0442205E00020FFF712FC5E
:4010C000C42200E08422034B1A702046FFF76AFF10BD00BF0A59004008B5102000F056F807210120FFF734FC07490120FFF71CFC064A137843F0060313700C20FFF7D0FF14
:401100000022034B1A8008BD8911000009590040C481FF1F08B5054B1B7823B9FFF7DCFF0122024B1A70FFF76FFF08BDB281FF1F024A137843F00103137070470859004097
:4011400010B5074B1B7813F0010401D10028F8D024B10120FFF7DEFB014B1B78204610BD09590040034B188880B2034B1B88C01A00B27047A25B0040BE81FF1F014B1880B0
:40118000704700BFC481FF1F704700BF034B1A7800F0F80010431870704700BF824000400230800803D000BF01380046FCD17047EFF3108072B6704780F31088704700BFA4
:4011C00081F0004102E000BF83F0004330B54FEA41044FEA430594EA050F08BF90EA020F1FBF54EA000C55EA020C7FEA645C7FEA655C00F0E2804FEA5454D4EB5555B8BF43
:401200006D420CDD2C4480EA020281EA030382EA000083EA010180EA020281EA0303362D88BF30BD11F0004F4FEA01314FF4801C4CEA113102D0404261EB410113F0004F30
:401240004FEA03334CEA133302D0524263EB430394EA050F00F0A780A4F10104D5F1200E0DDB02FA0EFC22FA05F2801841F1000103FA0EF2801843FA05F359410EE0A5F19E
:4012800020050EF1200E012A03FA0EFC28BF4CF0020C43FA05F3C01851EBE37101F0004507D54FF0000EDCF1000C7EEB00006EEB0101B1F5801F1BD3B1F5001F0CD34908B8
:4012C0005FEA30004FEA3C0C04F101044FEA445212F5800F80F09A80BCF1004F08BF5FEA500C50F1000041EB045141EA050130BD5FEA4C0C404141EB010111F4801FA4F13A
:401300000104E9D191F0000F04BF01460020B1FA81F308BF2033A3F10B03B3F120020CDA0C3208DD02F1140CC2F10C0201FA0CF021FA02F10CE002F11402D8BFC2F1200C46
:4013400001FA02F120FA0CFCDCBF41EA0C019040E41AA2BF01EB0451294330BD6FEA04041F3C1CDA0C340EDC04F11404C4F1200220FA04F001FA02F340EA030021FA04F3C4
:4013800045EA030130BDC4F10C04C4F1200220FA02F001FA04F340EA0300294630BD21FA04F0294630BD94F0000F83F4801306BF81F480110134013D4EE77FEA645C18BF6F
:4013C0007FEA655C29D094EA050F08BF90EA020F05D054EA000C04BF1946104630BD91EA030F1EBF0021002030BD5FEA545C05D14000494128BF41F0004130BD14F580045E
:401400003CBF01F5801130BD01F0004545F0FE4141F470014FF0000030BD7FEA645C1ABF194610467FEA655C1CBF0B46024650EA013406BF52EA033591EA030F41F40021E1
:4014400030BD00BF90F0000F04BF0021704730B54FF4806404F132044FF000054FF0000150E700BF90F0000F04BF0021704730B54FF4806404F1320410F0004548BF4042B6
:401480004FF000013EE700BF42004FEAE2014FEA31014FEA02701FBF12F07F4393F07F4F81F06051704792F0000F14BF93F07F4F704730B54FF4607401F0004521F00041D8
:4014C00020E700BF50EA010208BF704730B54FF000050AE050EA010208BF704730B511F0004502D5404261EB41014FF4806404F132045FEA915C3FF4DCAE4FF003025FEAB9
:40150000DC0C18BF03325FEADC0C18BF033202EBDC02C2F1200300FA03FC20FA02F001FA03FE40EA0E0021FA02F11444C1E600BF70B54FF0FF0C4CF4E06C1CEA11541DBF92
:401540001CEA135594EA0C0F95EA0C0F00F0DEF82C4481EA030621EA4C5123EA4C5350EA013518BF52EA033541F4801143F4801338D0A0FB02CE4FF00005E1FB02E506F011
:401580000042E0FB03E54FF00006E1FB03569CF0000F18BF4EF0010EA4F1FF04B6F5007F64F5407404D25FEA4E0E6D4146EB060642EAC62141EA55514FEAC52040EA5E50DE
:4015C0004FEACE2EB4F1FD0C88BFBCF5E06F1ED8BEF1004F08BF5FEA500E50F1000041EB045170BD06F0004646EA010140EA020081EA0301B4EB5C04C2BFD4EB0C0541EAEC
:40160000045170BD41F480114FF0000E013C00F3AB8014F1360FDEBF002001F0004170BDC4F10004203C35DA0C341BDC04F11404C4F1200500FA05F320FA04F001FA05F220
:4016400040EA020001F0004221F0004110EBD37021FA04F642EB06015EEA430E08BF20EAD37070BDC4F10C04C4F1200500FA04F320FA05F001FA04F240EA020001F000416A
:4016800010EBD37041F100015EEA430E08BF20EAD37070BDC4F1200500FA05F24EEA020E20FA04F301FA05F243EA020321FA04F001F0004121FA04F220EA020000EBD3700B
:4016C0005EEA430E08BF20EAD37070BD94F0000F0FD101F00046400041EB010111F4801F08BF013CF7D041EA060195F0000F18BF704703F00046520043EB030313F4801FD0
:4017000008BF013DF7D043EA0603704794EA0C0F0CEA135518BF95EA0C0F0CD050EA410618BF52EA4306D1D181EA030101F000414FF0000070BD50EA410606BF1046194625
:4017400052EA430619D094EA0C0F02D150EA013613D195EA0C0F05D152EA03361CBF104619460AD181EA030101F0004141F0FE4141F470014FF0000070BD41F0FE4141F422
:40178000780170BD70B54FF0FF0C4CF4E06C1CEA11541DBF1CEA135594EA0C0F95EA0C0F00F0A7F8A4EB050481EA030E52EA03354FEA013100F088804FEA03334FF08055A3
:4017C00045EA131343EA12634FEA022245EA111545EA10654FEA00260EF000419D4208BF964244F1FD0404F5407402D25B084FEA3202B61A65EB03055B084FEA32024FF4BE
:4018000080104FF4002CB6EB020E75EB030E22BFB61A754640EA0C005B084FEA3202B6EB020E75EB030E22BFB61A754640EA5C005B084FEA3202B6EB020E75EB030E22BF2E
:40184000B61A754640EA9C005B084FEA3202B6EB020E75EB030E22BFB61A754640EADC0055EA060E18D04FEA051545EA16754FEA06164FEAC30343EA52734FEAC2025FEADF
:401880001C1CC0D111F4801F0BD141EA00014FF000004FF0004CB6E711F4801F04BF01430020B4F1FD0C88BFBCF5E06F3FF6AFAEB5EB030C04BFB6EB020C5FEA500C50F1F3
:4018C000000041EB045170BD0EF0004E4EEA113114EB5C04C2BFD4EB0C0541EA045170BD41F480114FF0000E013C90E645EA060E8DE60CEA135594EA0C0F08BF95EA0C0F43
:401900003FF43BAF94EA0C0F0AD150EA01347FF434AF95EA0C0F7FF425AF104619462CE795EA0C0F06D152EA03353FF4FDAE1046194622E750EA410618BF52EA43067FF4D7
:40194000C5AE50EA41047FF40DAF52EA43057FF4EBAE12E74FF0FF3C06E000BF4FF0010C02E000BF4FF0010C4DF804CD4FEA410C7FEA6C5C4FEA430C18BF7FEA6C5C1BD01D
:4019800001B050EA410C0CBF52EA430C91EA030F02BF90EA020F0020704710F1000F91EA030F58BF994208BF90422CBFD8176FEAE37040F0010070474FEA410C7FEA6C5C9C
:4019C00002D150EA013C07D14FEA430C7FEA6C5CD6D152EA033CD3D05DF8040B704700BF8446104662468C461946634600E000BF01B5FFF7B7FF002848BF10F1000F01BDCD
:401A00004DF808EDFFF7F4FF0CBF012000205DF808FB00BF4DF808EDFFF7EAFF34BF012000205DF808FB00BF4DF808EDFFF7E0FF94BF012000205DF808FB00BF4DF808ED08
:401A4000FFF7CEFF94BF012000205DF808FB00BF4DF808EDFFF7C4FF34BF012000205DF808FB00BF014B1868704700BF4C81FF1F0E4B70B51E460E4C0025E41AA410A54293
:401A800004D056F8253098470135F8E701F084FE084B094C1E46E41AA4100025A54204D056F8253098470135F8E770BDA4370000A4370000A4370000AC37000010B5431E4C
:401AC0000A44914204D011F8014B03F8014FF8E710BD03460244934202D003F8011BFAE770472DE9F04788B0149F002B1E461299B8BF03F1004327F02007B6BF1E46002366
:401B00002D23462F1446109DDDF84CA00B7003D0452F03D1013501E0032300E0022307AA049206AA03928DE828042246334600F0B7FB472F804602D1119BDB0728D5462F81
:401B400008EB050911D198F80030302B0AD10022002320463146FFF753FF18B9C5F10105CAF80050DAF8003099440022002320463146FFF745FF08B9302202E0CDF81C90E2
:401B800006E0079B994503D9591C07911A70F8E74046079B159AC8EB0303136008B0BDE8F087034673B50029B8BF494203F8022BB4BF2D222B22092942701ADD0DF10702E1
:401BC00016460A2591FBF5F405FB1411092C01F1300102F8011D2146F4DC3031541E02F8011CB4421A460AD214F8012B03F8012BF7E71A463024214402F8024B5970101A6D
:401C000002B070BD2DE9F04F91B00C46DDF8688016461F46054601F0DBF803681846099300F0AAFA00230E93D8F800300A90073323F0070303F1080294F81890D4F800B0F4
:401C4000C8F80020D3E90023C4E91223D4F84CA0D4F848802AF000430B934FF0FF32A74B40460B9901F014FCA0B94FF0FF32A34B40460B99FFF7D8FE60B90022002340465E
:401C80005146FFF7C7FE10B12D2384F843309C4B9C4A0AE0424653464046514601F0F8FB002800F09281984B984AB9F1470F8CBF90469846032323612BF0040323604FF07C
:401CC000000A3DE0B9F1670F00F08A81B9F1470F00F0868123600193636800210DF13302059002920093424653460691CDF81090CDF80CE02846FFF7F4FE09F0DF03472B48
:401D0000804600F08481B9F1650F0D9900F28D8101394A4604F150000D91FFF742FF0E9A82468318012A236100F37C812268D10700F178819DF8333013B12D2384F843304F
:401D4000009733460FAA2146284600F09FF9013002D14FF0FF3096E123685A0501D4236965E0B9F1650F40F2D580D4E9120100220023FFF745FE78B30123654A31462846EE
:401D8000B8470130E5D00E9B0D9A9A420BDB2368D80708D423689B0740F111814FF0000804F1190906E10A9B099A31462846B8470130CED04FF0000804F11A090E9B013B72
:401DC0009845E7DA01234A4631462846B8470130BFD008F10108F1E70D9B002B29DC01234B4A31462846B8470130B2D00D9B23B90E9B13B92368D907CCD50A9B099A314627
:401E00002846B8470130A4D04FF0000904F11A0A0D9B5B42994509DA0123524631462846B847013095D009F10109F1E70E9B4246A7E00E9AA36D9A42A8BF1A46002A914603
:401E400006DC4FF0000A29EAE97904F11A0B11E01346314642462846B8470130F1D178E701235A4631462846B84701303FF471AF0AF1010AA36DC9EB03029245F0DB08EB10
:401E800003090D9A0E9B9A420FDB2368DA070CD40E9B0D9A9844C9EB08089B1A9845A8BF9846B8F1000F08DC0FE00A9B099A31462846B8470130EBD14BE743464A46314687
:401EC0002846B84701303FF444AF4FF0000928EAE87804F11A0A09E00123524631462846B84701303FF435AF09F101090D9A0E9B9B1AC8EB03039945EEDB4BE7FFFFEF7F73
:401F00007036000074360000783600007C360000803600000E9A012A01DCDB0738D50123424631462846B84701303FF412AF0A9B099A31462846B84701303FF40AAFD4E9E1
:401F4000120100220023FFF75BFD20B14FF0000804F11A090EE00E9B08F10102013B19E001234A4631462846B84701303FF4F1AE08F101080E9B013B9845F1DB534604F10A
:401F8000500231462846B84701307FF403AFE0E64246012331462846B8470130EED1D8E601234A4631462846B84701303FF4D1AE08F10108E3680F9A9B1A9845F0DBE0687B
:401FC0000F9B9842B8BF18465DE062680EA8531C0DF1340E4BF480637FF474AE062201E012B90122626075E6002106910DF133018DE80C00236005904246CDF81090CDF81C
:402000000CE0029153462846FFF76BFD80460D9BD81C02DB626893421DDDA9F102095FFA89F970E60133236184E6B9F1660F14D10029636807DD216113B92268D2071DD56D
:4020400001330B4419E013B92268D00701D5023313E0012311E04FF067090D9B0E9A934205DB22682361D10708D5013305E0002BD4BFC3F102030123134423610D9B4FF0B7
:40208000000AA36556E611B0BDE8F08F2DE9F04791461F460A698B6806469342B8BF1346C9F8003091F843200C46DDF8208012B10133C9F800302368990642BFD9F8003055
:4020C0000233C9F80030256815F0060510D104F1190A07E00123524639463046C04701301AD00135E368D9F800209B1A9D42F1DB94F843302268003318BF012392060FD565
:40210000E118302081F843005A1C94F845102244023382F8431003E04FF0FF30BDE8F08704F1430239463046C0470130F4D02268D9F80050E36802F00602042A08BF5D1BE6
:402140002269A3680CBF25EAE57500259342C4BF9B1AED184FF000091A344D4509D00123224639463046C0470130D5D009F10109F3E70020BDE8F087034613F8012B002A3B
:40218000FBD1181A013870472DE9F74F03690C6980469C427FDC013C01F114074FEA840E00F1140606EB0E0357F82450019356F824300135B3FBF5F507EB0E09C5B34FF04C
:4021C000000A3846B446D34650F8043B9AB205FB02A21B0C4FEA124A05FB03A392B2C2EB0B0BBCF800204FEA134A5A441FFA83FBDCF800308145CBEB134303EB224392B258
:4022000042EA03424FEA234B4CF8042BDCD256F80E306BB9019B043B9E421A4602D3C8F8104005E01268043B002AF8D1013CF3E7404600F0E6FF00282BDB304601354FF099
:40224000000E57F8042B036891B2C1EB0E0E120C99B27144C2EB134303EB214389B24FEA234EB94541EA034340F8043BE9D256F8242006EB840362B9043B9E421A4602D3EA
:40228000C8F8104005E01268043B002AF8D1013CF3E7284600E0002003B0BDE8F08F00002DE9F04F456A95B08246219CCDE9022345B9102000F090FDCAF82400456085605D
:4022C0000560C560DAF82430196859B15A68012393404A608B60504600F0BBFDDAF8243000221A60039BA04A002BBDBF01232360039B0023BCBF23F000430393DDF80C80F6
:40230000A8BF236028F000431B0D1B0593421DD142F20F73209A1360029B43B9934A944BC8F31300002814BF1846104600E09048229B002B00F04685C37813B100F1080342
:4023400000E0C31C229A136000F03CBDDDE902450022002320462946FFF752FB074658B1209A01231360229B002B00F01E8581481860013800F026BD12AB019313AB00930B
:4023800022462B46504600F0B7FFC8F30A56049056B1C5F3130343F07F51204641F44011A6F2FF3611971DE0139B129E1E4406F23243202B0ADD029A06F21240C3F14003E7
:4023C00022FA00F008FA03F3184304E0C3F12000029B03FA00F0FFF735F80123A1F1F871013E11930022644BFEF7EEFE58A3D3E90023FFF79DF858A3D3E90023FEF7E6FE4D
:40240000044630460D46FFF72DF855A3D3E90023FFF78EF802460B4620462946FEF7D6FE04460D4601F04AF800228346002320462946FFF7EFFA58B15846FFF713F8024662
:402440000B4620462946FFF7DBFA08B90BF1FF3BBBF1160F0DD8DDE90223484901EBCB01D1E90001FFF7F4FA30B10BF1FF3B002300E00123109300E01090129B9E1B731E93
:40248000079343BFC3F10008002307934FF00008BBF1000F06DB079BCDF82CB05B440793002705E00023CBEB0808CBF100070B931E9B092B28D8052BC4BF043B1E931E9B09
:4024C000C8BF0025A3F10203D8BF0125032B20D8DFE803F0060E0204012302E0012308E000230A931F9B002B1DDD9946059321E000230A931F9B0BEB030909F10103012B11
:402500000593B8BF012315E0012500231E930A9501E001230A934FF0FF390022CDF8149012231F9206E04FF001094B46CDF81490CDF87C90DAF8244000226260042101F125
:4025400014029A421CD86268490001326260F6E761436F63A787D23FB3C8608B288AC63FFB799F501344D33F0000F07F823600008B360000813600000000F83F983600004E
:402580006168504600F030FCDAF8243020601B680693059B0E2B00F25B81002D00F05881DDE90234BBF1000FCDE90E3430DD9F4A0BF00F034FEA2B1502EBC303E80618CB92
:4025C000CDE908340CD5DDE90E01994B05F00F05D3E90823FFF7D6F80324CDE9020100E00224934E6DB1E90708D5DDE90801D6E90023FEF79DFFCDE9080101346D100836F8
:40260000F0E7DDE90823DDE90201FFF7BBF820E0CBF1000505B3DDE90E01844B05F00F0203EBC203D3E90023FEF782FFCDE902017F4E2D110023022455B1EA0705D5D6E998
:402640000023FEF775FF013401236D100836F3E71BB1CDE9020100E00224109BE3B1DDE902560022734B28463146FFF7D3F998B1059B8BB1B9F1000F40F3E6800BF1FF33CC
:402680000893314600226C4B2846FEF751FF0134CDE902014E4602E0059ECDF820B02046FEF7E0FEDDE90223FEF742FF634B0022FEF78CFDA1F1507304460C931D46D6B908
:4026C000DDE9020100225E4BFEF77EFD22460C9BCDE90201FFF7BCF9002840F03F820C99224601F10043DDE90201FFF793F9002840F02B82A8E00A9A4C4B711E002A49D023
:4027000003EBC103D3E9002300204E49FFF73AF822462B46FEF758FDCDE90C01069CDDE9020100F0CBFE0546FEF79CFE02460B46DDE90201FEF748FDDDE90C23303504F853
:40274000015BCDE90201FFF765F9002840F01D83DDE9022300203749FEF736FDDDE90C23FFF758F9002840F0D180069BE31AB3426ADADDE90C0100222F4BFEF7D9FE00222C
:40278000CDE90C01DDE902012B4BFEF7D1FECDE90201C4E703EBC1012246D1E900012B46FEF7C6FE069BCDE90C011D469C19DDE9020100F083FE0646FEF754FE02460B4610
:4027C000DDE90201FEF700FD303605F8016BAC42CDE902014FF0000222D11A4BDDE90C01FEF7F4FC02460B46DDE90201FFF730F9002840F08B80DDE90C2300201149FEF70F
:40280000E3FC02460B46DDE90201FFF703F9D8B114F8013C621E302B40F0B7821446F7E7054BFEF785FECDE90201C0E798360000703700000000F03F0000244000001C408B
:40284000000014400000E03FDDE90E34CDE90234139B002B7CDBBBF10E0F79DCAB4B03EBCB03D3E900671F9B002B14DA059B002B11DC40F06C810022A54B30463946FEF72A
:4028800057FEDDE90223FFF7D9F8059D2E46002840F05F8165E1069CDDE9028932463B4640464946FEF76EFF00F008FE0546FEF7D9FD32463B46FEF73BFE0B4602464946BF
:4028C0004046FEF781FC05F1300E069B04F801EBC3EB040E059B73452DD102460B46FEF775FC8046894602460B4630463946FFF791F878B942464B4630463946FFF780F8BF
:40290000002800F04482EB0704D440E2DDF820B000E01C4614F8012C631E392A07D1069A9A42F6D1069930220BF1010B0A701A7801321A702BE20022764BFEF7F9FD0022EF
:40294000002380468946FFF75BF80028A6D01EE20A9A002A2BD01E9A012A0ADC119A12B103F2334302E0129BC3F136033D46444613E0059B5D1EAF42BFBF0B9BEA1B9B18E9
:402980000B93059BB6BF2F467D1B0025002BA7BF4446059BC3EB08040023079A01211A4450469844079200F0F3FA064602E03D4644460A9E5CB1079B002B08DDA342A8BFA3
:4029C0002346079AC3EB0808E41AD31A0793002F1DDD0A9BABB18DB131462A46504600F071FB049A01460646504600F0DAFA04990890504600F02DFA089B04937A1B06D037
:402A000000E03A460499504600F05CFB04900121504600F0BDFA0B9B05465BB31A460146504600F04FFB1E9B0546012B18DC029B83B9039BC3F3130373B9039B23F00047C8
:402A40003F0D3F054FB1079B08F1010801330793012702E0002700E0029F0B9B73B100E000272B6905EB8303186900F044FAC0F1200004E01E9B012BD9DD0B9F0120079B5B
:402A8000184410F01F0008D0C0F12003042B02DDC0F11C0002E006D018461C30079B8044034404440793B8F1000F05DD42460499504600F055FB0490079B002B05DD2946DC
:402AC0001A46504600F04CFB0546109B23B32946049800F096FB00281EDA00230A220499504600F0CDF90A9B0BF1FF3B0490002B00F05F81314600230A22504600F0C0F98A
:402B0000B9F1000F06463FDC3BE000BF983600000000144000002440059B002B2BDC1E9B022B28DDDDF81490B9F1000F11D129464B460522504600F0A3F9014605460498CD
:402B400000F05FFB00280CDC03E0354600E000252E461F9B069C6FEA030B09E03546DDF820B0069B069A5C1C312313700BF1010B05960026F7E00A9BDDF8149023B9069C8C
:402B8000B2E01E9B022BCFDC002C05DD31462246504600F0E5FA06469FB17168504600F023F90446326906F10C01023292000C30FEF784FF01222146504600F0D1FA0590B6
:402BC00000E00596029B069F03F00103079329460498FFF7D9FA3146044600F13008049800F00FFB059A02902946504600F025FBC36802463BB901460A90049800F001FB1D
:402C00000A9A034600E00123114650460A9300F020F90A9B53B91E9A42B9079A32B9B8F1390F2AD0029B002B1CDC1DE0029A002A04DB1BD11E9ACAB9079ABAB9002B13DD7D
:402C400001220499504600F08BFA2946049000F0D8FA002803DC07D118F0010F04D0B8F1390F0AD004F131087C1C0CE0002B07F101040BDDB8F1390F03D139233B70013768
:402C800056E008F1010887F800806CE0069B2746E31A4B4504F8018C3BD000230A220499504600F0EDF8059B04909E424FF00A024FF000033146504604D100F0E1F8064673
:402CC000059084E700F0DCF8002306460A220599504600F0D5F8059079E700230A220499504600F0CDF8049029460498FFF74CFA069B00F1300804F8018BE31A4B45ECDBD7
:402D0000069B0596B9F1010FACBF4B4401331F46002601220499504600F022FA2946049000F06FFA002803DC15D118F0010F12D03C4614F8013C621E392B09D1069B934240
:402D400004D10BF1010B3123069A02E01446F0E70133137007E03C4614F8013C621E302B01D11446F8E72946504600F072F8059B6BB12EB19E4203D03146504600F069F815
:402D80000599504600F065F801E0DDF820B00499504600F05EF80023209A23700BF101031360229B1BB11C6001E008480AE0069808E0B9F1000F3FF7E2AE1E9B022B7FF72F
:402DC000DEAEB1E615B0BDE8F08F00BF80360000004870475081FF1F024B0146186800F0E7BA00BF4C81FF1F70B5456A04460E463DB91020FFF7F0FF6062456085600560E7
:402E0000C560656AEB6843B1636ADB6853F8260078B1026843F8262017E021220421204600F0B8FA636AE860DB68002BECD1002070BD012101FA06F56A1D9200204600F047
:402E4000A9FA0028F3D04660856000230361C36070BD70B5446A06460D463CB91020FFF7BBFF7062446084600460C4603DB1736A6A68DB6853F82210296043F8225070BD79
:402E80002DE9F04106460C460D691F4601F1140E0023DEF80000013381B202FB0171000C0F0C02FB007089B201EB00419D424FEA10474EF8041BECDCD7B1A3689D4212DB78
:402EC000616830460131FFF78FFF8046226904F10C01023292000C30FEF7F0FD21463046FFF7B7FF444604EB850301355F6125612046BDE8F081030C1B0413B900041023F3
:402F000000E0002310F07F4F04BF0002083310F0704F04BF0001043310F0404F04BF80000233002803DB420003D5581C70471846704720207047036813F007020BD0D90776
:402F400022D49A074BBF5B089B08036003604CBF01200220704799B209B91B0C102213F0FF0F04BF1B0A0832190704BF1B090432990704BF9B080232D90702D45B0805D0E1
:402F80000132036010467047002070472020704710B50C460121FFF727FF01224461026110BD2DE9F74F14460A69236988469A42BEBF0B46A0461C46D8F81070D4F8109022
:402FC000D8F80830D8F8041007EB09069E42C8BF0131FFF709FF00F114052B4605EB860C0022634502D243F8042BFAE704F1140208F1140102EB890301EB87070093009B2D
:403000000192934257D9B2F800B0BBF1000F23D08946AE464FF0000859F8044BBEF800A0A3B20BFB03A34FEA144ADEF8004043444FEA14480BFB0A84F24604EB13449BB2C7
:4030400043EA04434F454FEA14484AF8043B01D9D646E1E7CEF80480019B0432B3F802A0BAF1000F21D02C4689462B684FF00008B9F800E0B4F802B09BB20AFB0EBEA3464F
:40308000F04443EA08434BF8043B59F8043BB4F804E01B0C0AFB03E34F4503EB18434FEA134801D95C46E3E763600435A7E75CF8043D13B9013E002EF9DC066103B0BDE80D
:4030C000F08F00002DE9F843154612F0030206460F4607D0214C013A002354F82220FFF7CFFE0746AD1036D0746A3CB91020FFF773FE7062446084600460C460D6F824803C
:40310000D8F808404CB940F271213046FFF740FF04460023C8F8080003604FF00008EB070AD5394622463046FFF73BFF814639463046FFF78EFE4F466D100CD0206808B159
:403140000446ECE7224621463046FFF72AFF2060C0F80080F4E73846BDE8F883603700002DE9F0470C460746914626694FEA621A56444968A368751CAB4202DA01315B00C2
:40318000FAE73846FFF730FE002380461A4600F11401534503DA41F823200133F9E72AEAEA73206901EB830319F01F0904F1140101EB800E14D0C9F1200C002208689A46DB
:4031C00000FA09F0024343F8042B51F8042B8E4522FA0CF2F2D8CAF8042042B1B51C06E0043B51F8042B8E4543F8042FF9D8013D3846C8F810502146FFF72BFE4046BDE818
:40320000F08703690A6910B59B1A11D192001430143183180A4453F8044D52F8041D8C4202D007D3012010BD9842F4D3002010BD184610BD4FF0FF3010BD2DE9F8430C46D2
:403240000746114620461546FFF7DBFF061E08D131463846FFF7C8FD012303614661BDE8F883BCBF23462C4638466168BABF1D4601260026FFF7B8FD2B69C660266905F16D
:40328000140904F1140101EB860709EB830800F114054FF0000C51F8042B59F8044B93B29C44A3B2240CC3EB0C03C4EB124202EB23429BB24FEA224CC84543EA02428E4680
:4032C00045F8042BE7D8BE450ED25EF8041B8AB26244131403EB114392B242EA03424FEA234C45F8042BEEE755F8043D0BB9013EFAE70661BDE8F8832DE9F3411C4601219B
:403300009046089E099DFFF76FFDC4F31302C4F30A5407460CB142F480120192B8F1000F19D002A840F8088DFFF705FE009B48B1019AC0F1200102FA01F10B43C2407B6197
:40334000019200E07B61019B002B14BF02210121BB61396107E001A8FFF7EDFD019B01217B613961203034B1A4F2334404443460C0F1350009E0A0F2324007EB81033060CE
:403380001869FFF7B8FDC0EB41102860384602B0BDE8F08138B502FB01F4214600F008F8054618B122460021FEF793FB284638BD70B5CD1C25F0030508350C2D38BF0C2595
:4033C000002D064601DBA94202D90C23336046E000F05CF8234B1C681A462146A1B10B685B1B0ED40B2B03D90B60CC18CD501EE08C420BBF63684B681360636018BF0C46BF
:4034000015E00C464968E9E7174C23681BB9304600F02CF820602946304600F027F8431C18D0C41C24F00304A0420DD12560304600F02DF804F10B00231D20F00700C31ABE
:403440000ED05A42E25070BD211A304600F00EF80130EBD10C233360304600F018F8002070BD00BFB881FF1FB481FF1F38B5064C0023054608462360FDF714F9431C02D140
:40348000236803B12B6038BDC881FF1F704770474FEA410C7FEA6C5C02D150EA013C0AD14FEA430C7FEA6C5C02D152EA033C02D14FF0000070474FF0010070474FEA410259
:4034C00012F5001215D211D56FF47873B3EB625212D94FEAC12343F0004343EA505311F0004F23FA02F018BF404270474FF00000704750EA013005D111F0004008BF6FF0EB
:40350000004070474FF00000704700BF00000000466C616720626C69766572207361742E2050696E310D0A0044432D4D6F746F722D50574D206170706C69636174696F6E02
:4035400020737461727465640D0A0000303A2053746F700D0A000000313A20447269766520666F7277617264730D0A00323A204472697665206261636B77617264730D0A43
:4035800000000000713A2044656372656173652073706565640D0A00773A20496E6372656173652073706565640D0A0042726F6F6D62612072756E0D0A00000044656372CD
:4035C000656173696E672073706565640D0A0000496E6372656173696E672073706565640D0A000053746F700D0A000053657420646972656374696F6E3A20666F7277617E
:403600007264730D0A00000053657420646972656374696F6E3A206261636B77617264730D0A00005475726E696E672072696768740D0A005475726E696E67206C6566740C
:403640000D0A0000305100404000F0510040100000000140001000140140000800400140000A004C014000020050014020004300494E4600696E66004E414E006E616E00B1
:403680003000496E66696E697479004E614E00504F534958002E0000000000000000F03F000000000000244000000000000059400000000000408F40000000000088C3400C
:4036C00000000000006AF8400000000080842E4100000000D01263410000000084D797410000000065CDCD41000000205FA00242000000E876483742000000A2941A6D423B
:40370000000040E59C30A2420000901EC4BCD64200003426F56B0C430080E03779C3414300A0D8855734764300C84E676DC1AB43003D9160E458E143408CB5781DAF154488
:4037400050EFE2D6E41A4B4492D54D06CFF08044F64AE1C7022DB544B49DD9794378EA4405000000190000007D000000000000000080E03779C34143176E05B5B5B8934675
:40378000F5F93FE9034F384D321D30F94877825A3CBF737FDD4F1575F8B500BFF8BC08BC9E4670474D00000021070000F8B500BFF8BC08BC9E46704729000000D0370000C3
:4037C000C880FF1FC000000048000000000000000000000032010000B80B0000B80B0000D081FF1F0000E02EC05D00001800000000366E010000000000000000000000004B
:4038000000000000000000000000000000000000000000006E36000000000000000000000000000000000000000000000000000000000000000000000000000000000000E4
:403840000000000000000000000000000000000000000000EC80FF1F95360000963600009636000096360000963600009636000096360000963600009636000096360000C7
:40388000FFFFFFFFFFFFFFFFFFFFFFFFFFFF000000000000000000000000000000000000000000000000000000000000000000000000000000000000000000000000000016
:4038C00000000000000000000000000000000000000000000000000000000000000000000000000000000000000000000000000000000000000000000000000000000000C8
:403900000000000000000000000000000000000000000000000000000000000000000000000000000000000000000000000000000000000000000000000000000000000087
:403940000000000000000000000000000000000000000000000000000000000000000000000000000000000000000000000000000000000000000000000000000000000047
:403980000000000000000000000000000000000000000000000000000000000000000000000000000000000000000000000000000000000000000000000000000000000007
:020000040003F7
:0200000480007A
:400000000245004006520040025B00400864004003650040540201403303014001050140020701404F080140460901405E0A0140330B0140050D0140590E0140380F01403E
:4000400003150140011701404B1801404D190140571A01404A1B014007400140074101400642014007430140044401400C45014002460140054701400648014004490140B8
:400080000C4C01400F4D01400A5001400251014000010101010809201006110C6180644027842F84820D830D884789388A0D8B0F8E0D8F0D880789728A780B010E051101BC
:4000C00016091E042202300232043401360837013E044010410445D046104720482A49FF4AFF4BFF4DA04F04501852805405580459045A045B045C555D555F01604062C0C4
:400100006440654066C068C06AC06CC06EC082028703920195019A049F02AA02B204B302B402B601B701BE10C010C106C5D1C702C813C9FFCAFFCBFFCDA0CF04D018D2807E
:40014000D405D804D904DA04DB04DC44DD44DF01E040E2C0E440E540E6C0E8C0EAC0ECC0EEC00001044006020A400B080F2212081680180119401A041B081C401D041E02D7
:400180001F202108224026403140330836013B083F2040014502460249024A084B084F0152085502571159025A845D085E805F01650C724076808D08C088C2AAC412CC8AF7
:4001C000CE22D098D204D6DBAF20E201EE01024C044C050406130C110E460F0118111A0E1B061E08242026032F0430303104320F3302344A370138023A283F0140014102E5
:4002000042104403450F46EC47DB483D49FF4AFF4BFF4C224EF04F0C508C51105441580459045A045B045C325D385F11684069016AC06B0183028402850489018D048E0452
:40024000920199049C049F02A601AA02B002B102B204B304B401B701BE15BF41D418D604D804D904DB04DC20DD20DF0100800201032005050701080209400D200F02100810
:400280001220162018841B041D351F0821062301244025442F01318032103520382039463C803D084502464847484C305408560257505A025C485E206004624266047A1085
:4002C0007B107D20820284218C408D808F4096409A849B019D359E20A2C0A524A701B288B322C0B5C2C9C426CA10CC2CCE5FD070D671D84DDE20EE0107020F011101120242
:400300001B022E0133023401360237013F044020410345D046014702481649FF4AFF4BFF4DA04F04501852805405580459045A045B045C445D445F01604062C064406540DD
:4003400066C068C06AC06CC06EC0800982108320841C85018602880C8A118B14910C92039330952897109814990C9B109C10A010A20CA502AB01AD0CAF10B01FB301B5020D
:40038000B73CBB80BF14C043C102C50BC60CC70EC815C9FFCAFFCBFFCEF0CF44D00CD401D804D904DA04DB04DC22DD22DF01E6C0EA40EB02040105150B800E800F0A120CC6
:4003C000134017011A021B201E802244268827092D202E883201332035143701388039083C013D083E204104432045204620470149024F08504051045340568859025A8886
:400400005E405F2A73409480A720C070C2D8C411CA70CCE5CEEAD0E6D6FB9480A720A910E410EC0407010E040F02120215011A081B02220226042E013001310132083404E0
:40044000350236023E104040410645D24701481349FF4AFF4BFF4DA04F04501852805405580459045A045B045C445D445F01604062C06440654066C068C06AC06CC06EC09C
:40048000820283018E0892049E01A101A601AA04B002B101B204B401B608BE04C040C102C5D0C712C832C9FFCAFFCBFFCDA0CF04D018D280D405D804D904DA04DB04DC44B4
:4004C000DD44DF01E040E2C0E440E540E6C0E8C0EAC0ECC0EEC00302064109020B080D020F021020110213401508160818011A041B0B1D161F802220238024402C202F90C0
:4005000033283408350438803B083D02430245024608482049014B204D01510453045501560959015A045B805C485D01734076408C018E20C091C29AC46DCA80CC06CE8A80
:40054000D0A1D204D6DBE810EC20EE08E22001210302052107040C020F0111011330152117081B1E2A01320133203402351F3E103F1456025728582459045B045C085D8002
:400580005E085F11830484738508860C881F891C8A608BE18C7F8D1091FF9223940C953C97C2980499809C019FE3A008A144A402A518A803A9C0AC1CADE7AE63AF18B010A3
:4005C000B1C0B22CB31FB40FB640B738B880BA28BB08BE01D602D713D804D904DB04DC22DD20DF01001402020440088009080A800B8410961520181419011B401E201F106A
:400600002020218022092728288429042B023010324A3610370538923B043C803E0559016608672069546A206E056F0570C0710C730478027B407C407D20845285108B40AE
:400640008C048F0291089301954696629702980199909A829C029D209E299F48A2C0A30CA590A620A721B408B701C087C20FC44FCA0FCCEFCEDFD601D840DE30E22214010F
:40068000164618141A891C0A1EB1241F281F30C03207341836203B023E014023410542014404450E47C0482149FF4AFF4BFF4C624DA04EF04F41500C54205604580459042B
:4006C0005A045B045C225D325F016640670269106A306B106D106E106F128118851890019118951899079D07A308A705A902AB04AF04B110B303B504B601B708B908BE408D
:40070000BF55C002C740C9FFCA07CBFFCC40CD20CEF0CF05D008D608D804D904DA04DB04DD32DF01E040E1A8E240E32008940A280E80111418421A281E02220225202752E6
:400740002E822F283510368037053E054044418447104A2251015620572158015D885F2263596520660167128120824188808D088E029004911C92059301940295029640CC
:400780009742980199909A829B259C949D209E219F40A180A2C0A30CA622A701A840AB20B104B340B510C217C406CAF0CCF0CEC0D02FD208D6F1D8FFE401E810EC20EE0C74
:4007C00031403308340236805C026540CCF0302059409C02A680A708CC10D4809C02A420A680A708AD40EE1080209C02A420A680AB08E280EE808C048D10E008E4085004F4
:40080000551058205F808F8090089820A110A820D407D604E4081A80C60844018E02AA40D004E4082080240888029C02A680C860AE80B040B404EE1009480F081F80340249
:40084000620285409C01A202C20BC601CC01D8021010700480048810AB04AF80B001B402B508C408DC01E204E808EC04EE08003C010108300C1C0D010E10100C11011C0C9C
:400880001D0100FF010C0000000B080008005400800040808000800000000000D02B2B0020000400000F0F000F0000000000000000000000000000000000000000000000E8
:4008C00000000000000000000000000000000000000000000000000000000000000000000000000000000000000000000000000000000000000000000000000000000000F8
:4009000000000000000000000000000000000000000000000000000000000000000000000000000000000000000000000000000000000000000000000000000000000000B7
:400940000000000000000000000000000000000000000000000000000000000000000000000000000000000000000000000000000000000000000000000000000000000077
:400980000000000000000000000000000000000000000000000000000000000000000000000000000000000000000000000000000000000000000000000000000000000037
:0200000490006A
:0400000000004005B7
:0200000490105A
:04000000BC90ACAF55
:0200000490303A
:02000000C1D06D
:0200000490402A
:4000000000000000000000000000000000000000000000000000000000000000000000000000000000000000000000000000000000000000000000000000000000000000C0
:400040000000000000000000000000000000000000000000000000000000000000000000000000000000000000000000000000000000000000000000000000000000000080
:400080000000000000000000000000000000000000000000000000000000000000000000000000000000000000000000000000000000000000000000000000000000000040
:4000C0000000000000000000000000000000000000000000000000000000000000000000000000000000000000000000000000000000000000000000000000000000000000
:0200000490501A
:0C00000000012E16106900012E2ED239CE
:00000001FF